{"contracts/ethereum/TestContracts/StarknetMessaging.sol":{"StarknetMessaging":{"abi":[{"anonymous":false,"inputs":[{"indexed":true,"internalType":"uint256","name":"from_address","type":"uint256"},{"indexed":true,"internalType":"address","name":"to_address","type":"address"},{"indexed":false,"internalType":"uint256[]","name":"payload","type":"uint256[]"}],"name":"ConsumedMessageToL1","type":"event"},{"anonymous":false,"inputs":[{"indexed":true,"internalType":"address","name":"from_address","type":"address"},{"indexed":true,"internalType":"uint256","name":"to_address","type":"uint256"},{"indexed":true,"internalType":"uint256","name":"selector","type":"uint256"},{"indexed":false,"internalType":"uint256[]","name":"payload","type":"uint256[]"},{"indexed":false,"internalType":"uint256","name":"nonce","type":"uint256"}],"name":"ConsumedMessageToL2","type":"event"},{"anonymous":false,"inputs":[{"indexed":true,"internalType":"uint256","name":"from_address","type":"uint256"},{"indexed":true,"internalType":"address","name":"to_address","type":"address"},{"indexed":false,"internalType":"uint256[]","name":"payload","type":"uint256[]"}],"name":"LogMessageToL1","type":"event"},{"anonymous":false,"inputs":[{"indexed":true,"internalType":"address","name":"from_address","type":"address"},{"indexed":true,"internalType":"uint256","name":"to_address","type":"uint256"},{"indexed":true,"internalType":"uint256","name":"selector","type":"uint256"},{"indexed":false,"internalType":"uint256[]","name":"payload","type":"uint256[]"},{"indexed":false,"internalType":"uint256","name":"nonce","type":"uint256"}],"name":"LogMessageToL2","type":"event"},{"inputs":[{"internalType":"uint256","name":"from_address","type":"uint256"},{"internalType":"uint256[]","name":"payload","type":"uint256[]"}],"name":"consumeMessageFromL2","outputs":[{"internalType":"bytes32","name":"","type":"bytes32"}],"stateMutability":"nonpayable","type":"function"},{"inputs":[],"name":"l1ToL2MessageNonce","outputs":[{"internalType":"uint256","name":"","type":"uint256"}],"stateMutability":"view","type":"function"},{"inputs":[{"internalType":"bytes32","name":"msgHash","type":"bytes32"}],"name":"l1ToL2Messages","outputs":[{"internalType":"uint256","name":"","type":"uint256"}],"stateMutability":"view","type":"function"},{"inputs":[{"internalType":"bytes32","name":"msgHash","type":"bytes32"}],"name":"l2ToL1Messages","outputs":[{"internalType":"uint256","name":"","type":"uint256"}],"stateMutability":"view","type":"function"},{"inputs":[{"internalType":"uint256","name":"to_address","type":"uint256"},{"internalType":"uint256","name":"selector","type":"uint256"},{"internalType":"uint256[]","name":"payload","type":"uint256[]"}],"name":"sendMessageToL2","outputs":[{"internalType":"bytes32","name":"","type":"bytes32"}],"stateMutability":"nonpayable","type":"function"}],"evm":{"bytecode":{"linkReferences":{},"object":"608060405234801561001057600080fd5b5061071d806100206000396000f3fe608060405234801561001057600080fd5b50600436106100575760003560e01c8063018cccdf1461005c5780632c9dd5c0146100765780633e3aa6c51461008957806377c7d7a91461009c578063a46efaf3146100af575b600080fd5b6100646100c2565b60405190815260200160405180910390f35b61006461008436600461045a565b6100f5565b6100646100973660046104a5565b61020f565b6100646100aa3660046104f7565b61030e565b6100646100bd3660046104f7565b610329565b60006100f060405180604001604052806020815260200160008051602061067f833981519152815250610333565b905090565b60405160009081906101139086903390869088908290602001610539565b6040516020818303038152906040528051906020012090506000610135610367565b60008381526020919091526040902054116101935760405162461bcd60e51b815260206004820152601a602482015279494e56414c49445f4d4553534147455f544f5f434f4e53554d4560301b604482015260640160405180910390fd5b336001600160a01b0316857f7a06c571aa77f34d9706c51e5d8122b5595aebeaa34233bfe866f22befb973b186866040516101cf929190610595565b60405180910390a360016101e1610367565b6000838152602001908152602001600020600082825461020191906105c7565b909155509095945050505050565b60008061021a6100c2565b905061025560405180604001604052806020815260200160008051602061067f83398151915281525082600161025091906105e0565b61038a565b8486336001600160a01b03167f7d3450d4f5138e54dcb21a322312d50846ead7856426fb38778f8ef33aeccc01878786604051610294939291906105f3565b60405180910390a46040516000906102bc903390899085908a9089908b908290602001610617565b60405160208183030381529060405280519060200120905060016102de6103bd565b600083815260200190815260200160002060008282546102fe91906105e0565b9091555090979650505050505050565b60006103186103bd565b600092835260205250604090205490565b6000610318610367565b60008082604051602001610347919061064f565b60408051601f198184030181529190528051602090910120549392505050565b60006100f060405180606001604052806023815260200161069f602391396103dc565b60008260405160200161039d919061064f565b604051602081830303815290604052805190602001209050818155505050565b60006100f06040518060600160405280602681526020016106c2602691395b600080826040516020016103f0919061064f565b60408051601f1981840301815291905280516020909101209392505050565b60008083601f84011261042157600080fd5b5081356001600160401b0381111561043857600080fd5b6020830191508360208260051b850101111561045357600080fd5b9250929050565b60008060006040848603121561046f57600080fd5b8335925060208401356001600160401b0381111561048c57600080fd5b6104988682870161040f565b9497909650939450505050565b600080600080606085870312156104bb57600080fd5b843593506020850135925060408501356001600160401b038111156104df57600080fd5b6104eb8782880161040f565b95989497509550505050565b60006020828403121561050957600080fd5b5035919050565b60006001600160fb1b0383111561052657600080fd5b8260051b80838637939093019392505050565b8581528460208201528360408201526000610558606083018486610510565b979650505050505050565b81835260006001600160fb1b0383111561057c57600080fd5b8260051b80836020870137939093016020019392505050565b6020815260006105a9602083018486610563565b949350505050565b634e487b7160e01b600052601160045260246000fd5b818103818111156105da576105da6105b1565b92915050565b808201808211156105da576105da6105b1565b604081526000610607604083018587610563565b9050826020830152949350505050565b878152866020820152856040820152846060820152836080820152600061064260a083018486610510565b9998505050505050505050565b6000825160005b818110156106705760208186018101518583015201610656565b50600092019182525091905056fe535441524b4e45545f312e305f4d5347494e475f4c31544f4c325f4e4f4e4345535441524b4e45545f312e305f4d5347494e475f4c32544f4c315f4d41505050494e47535441524b4e45545f312e305f4d5347494e475f4c31544f4c325f4d41505050494e475f5632a2646970667358221220435ece2d3cd78c35528a3bf17c650094efc929563088854bfd0948cb8d6ddf3164736f6c63430008110033","opcodes":"PUSH1 0x80 PUSH1 0x40 MSTORE CALLVALUE DUP1 ISZERO PUSH2 0x10 JUMPI PUSH1 0x0 DUP1 REVERT JUMPDEST POP PUSH2 0x71D DUP1 PUSH2 0x20 PUSH1 0x0 CODECOPY PUSH1 0x0 RETURN INVALID PUSH1 0x80 PUSH1 0x40 MSTORE CALLVALUE DUP1 ISZERO PUSH2 0x10 JUMPI PUSH1 0x0 DUP1 REVERT JUMPDEST POP PUSH1 0x4 CALLDATASIZE LT PUSH2 0x57 JUMPI PUSH1 0x0 CALLDATALOAD PUSH1 0xE0 SHR DUP1 PUSH4 0x18CCCDF EQ PUSH2 0x5C JUMPI DUP1 PUSH4 0x2C9DD5C0 EQ PUSH2 0x76 JUMPI DUP1 PUSH4 0x3E3AA6C5 EQ PUSH2 0x89 JUMPI DUP1 PUSH4 0x77C7D7A9 EQ PUSH2 0x9C JUMPI DUP1 PUSH4 0xA46EFAF3 EQ PUSH2 0xAF JUMPI JUMPDEST PUSH1 0x0 DUP1 REVERT JUMPDEST PUSH2 0x64 PUSH2 0xC2 JUMP JUMPDEST PUSH1 0x40 MLOAD SWAP1 DUP2 MSTORE PUSH1 0x20 ADD PUSH1 0x40 MLOAD DUP1 SWAP2 SUB SWAP1 RETURN JUMPDEST PUSH2 0x64 PUSH2 0x84 CALLDATASIZE PUSH1 0x4 PUSH2 0x45A JUMP JUMPDEST PUSH2 0xF5 JUMP JUMPDEST PUSH2 0x64 PUSH2 0x97 CALLDATASIZE PUSH1 0x4 PUSH2 0x4A5 JUMP JUMPDEST PUSH2 0x20F JUMP JUMPDEST PUSH2 0x64 PUSH2 0xAA CALLDATASIZE PUSH1 0x4 PUSH2 0x4F7 JUMP JUMPDEST PUSH2 0x30E JUMP JUMPDEST PUSH2 0x64 PUSH2 0xBD CALLDATASIZE PUSH1 0x4 PUSH2 0x4F7 JUMP JUMPDEST PUSH2 0x329 JUMP JUMPDEST PUSH1 0x0 PUSH2 0xF0 PUSH1 0x40 MLOAD DUP1 PUSH1 0x40 ADD PUSH1 0x40 MSTORE DUP1 PUSH1 0x20 DUP2 MSTORE PUSH1 0x20 ADD PUSH1 0x0 DUP1 MLOAD PUSH1 0x20 PUSH2 0x67F DUP4 CODECOPY DUP2 MLOAD SWAP2 MSTORE DUP2 MSTORE POP PUSH2 0x333 JUMP JUMPDEST SWAP1 POP SWAP1 JUMP JUMPDEST PUSH1 0x40 MLOAD PUSH1 0x0 SWAP1 DUP2 SWAP1 PUSH2 0x113 SWAP1 DUP7 SWAP1 CALLER SWAP1 DUP7 SWAP1 DUP9 SWAP1 DUP3 SWAP1 PUSH1 0x20 ADD PUSH2 0x539 JUMP JUMPDEST PUSH1 0x40 MLOAD PUSH1 0x20 DUP2 DUP4 SUB SUB DUP2 MSTORE SWAP1 PUSH1 0x40 MSTORE DUP1 MLOAD SWAP1 PUSH1 0x20 ADD KECCAK256 SWAP1 POP PUSH1 0x0 PUSH2 0x135 PUSH2 0x367 JUMP JUMPDEST PUSH1 0x0 DUP4 DUP2 MSTORE PUSH1 0x20 SWAP2 SWAP1 SWAP2 MSTORE PUSH1 0x40 SWAP1 KECCAK256 SLOAD GT PUSH2 0x193 JUMPI PUSH1 0x40 MLOAD PUSH3 0x461BCD PUSH1 0xE5 SHL DUP2 MSTORE PUSH1 0x20 PUSH1 0x4 DUP3 ADD MSTORE PUSH1 0x1A PUSH1 0x24 DUP3 ADD MSTORE PUSH26 0x494E56414C49445F4D4553534147455F544F5F434F4E53554D45 PUSH1 0x30 SHL PUSH1 0x44 DUP3 ADD MSTORE PUSH1 0x64 ADD PUSH1 0x40 MLOAD DUP1 SWAP2 SUB SWAP1 REVERT JUMPDEST CALLER PUSH1 0x1 PUSH1 0x1 PUSH1 0xA0 SHL SUB AND DUP6 PUSH32 0x7A06C571AA77F34D9706C51E5D8122B5595AEBEAA34233BFE866F22BEFB973B1 DUP7 DUP7 PUSH1 0x40 MLOAD PUSH2 0x1CF SWAP3 SWAP2 SWAP1 PUSH2 0x595 JUMP JUMPDEST PUSH1 0x40 MLOAD DUP1 SWAP2 SUB SWAP1 LOG3 PUSH1 0x1 PUSH2 0x1E1 PUSH2 0x367 JUMP JUMPDEST PUSH1 0x0 DUP4 DUP2 MSTORE PUSH1 0x20 ADD SWAP1 DUP2 MSTORE PUSH1 0x20 ADD PUSH1 0x0 KECCAK256 PUSH1 0x0 DUP3 DUP3 SLOAD PUSH2 0x201 SWAP2 SWAP1 PUSH2 0x5C7 JUMP JUMPDEST SWAP1 SWAP2 SSTORE POP SWAP1 SWAP6 SWAP5 POP POP POP POP POP JUMP JUMPDEST PUSH1 0x0 DUP1 PUSH2 0x21A PUSH2 0xC2 JUMP JUMPDEST SWAP1 POP PUSH2 0x255 PUSH1 0x40 MLOAD DUP1 PUSH1 0x40 ADD PUSH1 0x40 MSTORE DUP1 PUSH1 0x20 DUP2 MSTORE PUSH1 0x20 ADD PUSH1 0x0 DUP1 MLOAD PUSH1 0x20 PUSH2 0x67F DUP4 CODECOPY DUP2 MLOAD SWAP2 MSTORE DUP2 MSTORE POP DUP3 PUSH1 0x1 PUSH2 0x250 SWAP2 SWAP1 PUSH2 0x5E0 JUMP JUMPDEST PUSH2 0x38A JUMP JUMPDEST DUP5 DUP7 CALLER PUSH1 0x1 PUSH1 0x1 PUSH1 0xA0 SHL SUB AND PUSH32 0x7D3450D4F5138E54DCB21A322312D50846EAD7856426FB38778F8EF33AECCC01 DUP8 DUP8 DUP7 PUSH1 0x40 MLOAD PUSH2 0x294 SWAP4 SWAP3 SWAP2 SWAP1 PUSH2 0x5F3 JUMP JUMPDEST PUSH1 0x40 MLOAD DUP1 SWAP2 SUB SWAP1 LOG4 PUSH1 0x40 MLOAD PUSH1 0x0 SWAP1 PUSH2 0x2BC SWAP1 CALLER SWAP1 DUP10 SWAP1 DUP6 SWAP1 DUP11 SWAP1 DUP10 SWAP1 DUP12 SWAP1 DUP3 SWAP1 PUSH1 0x20 ADD PUSH2 0x617 JUMP JUMPDEST PUSH1 0x40 MLOAD PUSH1 0x20 DUP2 DUP4 SUB SUB DUP2 MSTORE SWAP1 PUSH1 0x40 MSTORE DUP1 MLOAD SWAP1 PUSH1 0x20 ADD KECCAK256 SWAP1 POP PUSH1 0x1 PUSH2 0x2DE PUSH2 0x3BD JUMP JUMPDEST PUSH1 0x0 DUP4 DUP2 MSTORE PUSH1 0x20 ADD SWAP1 DUP2 MSTORE PUSH1 0x20 ADD PUSH1 0x0 KECCAK256 PUSH1 0x0 DUP3 DUP3 SLOAD PUSH2 0x2FE SWAP2 SWAP1 PUSH2 0x5E0 JUMP JUMPDEST SWAP1 SWAP2 SSTORE POP SWAP1 SWAP8 SWAP7 POP POP POP POP POP POP POP JUMP JUMPDEST PUSH1 0x0 PUSH2 0x318 PUSH2 0x3BD JUMP JUMPDEST PUSH1 0x0 SWAP3 DUP4 MSTORE PUSH1 0x20 MSTORE POP PUSH1 0x40 SWAP1 KECCAK256 SLOAD SWAP1 JUMP JUMPDEST PUSH1 0x0 PUSH2 0x318 PUSH2 0x367 JUMP JUMPDEST PUSH1 0x0 DUP1 DUP3 PUSH1 0x40 MLOAD PUSH1 0x20 ADD PUSH2 0x347 SWAP2 SWAP1 PUSH2 0x64F JUMP JUMPDEST PUSH1 0x40 DUP1 MLOAD PUSH1 0x1F NOT DUP2 DUP5 SUB ADD DUP2 MSTORE SWAP2 SWAP1 MSTORE DUP1 MLOAD PUSH1 0x20 SWAP1 SWAP2 ADD KECCAK256 SLOAD SWAP4 SWAP3 POP POP POP JUMP JUMPDEST PUSH1 0x0 PUSH2 0xF0 PUSH1 0x40 MLOAD DUP1 PUSH1 0x60 ADD PUSH1 0x40 MSTORE DUP1 PUSH1 0x23 DUP2 MSTORE PUSH1 0x20 ADD PUSH2 0x69F PUSH1 0x23 SWAP2 CODECOPY PUSH2 0x3DC JUMP JUMPDEST PUSH1 0x0 DUP3 PUSH1 0x40 MLOAD PUSH1 0x20 ADD PUSH2 0x39D SWAP2 SWAP1 PUSH2 0x64F JUMP JUMPDEST PUSH1 0x40 MLOAD PUSH1 0x20 DUP2 DUP4 SUB SUB DUP2 MSTORE SWAP1 PUSH1 0x40 MSTORE DUP1 MLOAD SWAP1 PUSH1 0x20 ADD KECCAK256 SWAP1 POP DUP2 DUP2 SSTORE POP POP POP JUMP JUMPDEST PUSH1 0x0 PUSH2 0xF0 PUSH1 0x40 MLOAD DUP1 PUSH1 0x60 ADD PUSH1 0x40 MSTORE DUP1 PUSH1 0x26 DUP2 MSTORE PUSH1 0x20 ADD PUSH2 0x6C2 PUSH1 0x26 SWAP2 CODECOPY JUMPDEST PUSH1 0x0 DUP1 DUP3 PUSH1 0x40 MLOAD PUSH1 0x20 ADD PUSH2 0x3F0 SWAP2 SWAP1 PUSH2 0x64F JUMP JUMPDEST PUSH1 0x40 DUP1 MLOAD PUSH1 0x1F NOT DUP2 DUP5 SUB ADD DUP2 MSTORE SWAP2 SWAP1 MSTORE DUP1 MLOAD PUSH1 0x20 SWAP1 SWAP2 ADD KECCAK256 SWAP4 SWAP3 POP POP POP JUMP JUMPDEST PUSH1 0x0 DUP1 DUP4 PUSH1 0x1F DUP5 ADD SLT PUSH2 0x421 JUMPI PUSH1 0x0 DUP1 REVERT JUMPDEST POP DUP2 CALLDATALOAD PUSH1 0x1 PUSH1 0x1 PUSH1 0x40 SHL SUB DUP2 GT ISZERO PUSH2 0x438 JUMPI PUSH1 0x0 DUP1 REVERT JUMPDEST PUSH1 0x20 DUP4 ADD SWAP2 POP DUP4 PUSH1 0x20 DUP3 PUSH1 0x5 SHL DUP6 ADD ADD GT ISZERO PUSH2 0x453 JUMPI PUSH1 0x0 DUP1 REVERT JUMPDEST SWAP3 POP SWAP3 SWAP1 POP JUMP JUMPDEST PUSH1 0x0 DUP1 PUSH1 0x0 PUSH1 0x40 DUP5 DUP7 SUB SLT ISZERO PUSH2 0x46F JUMPI PUSH1 0x0 DUP1 REVERT JUMPDEST DUP4 CALLDATALOAD SWAP3 POP PUSH1 0x20 DUP5 ADD CALLDATALOAD PUSH1 0x1 PUSH1 0x1 PUSH1 0x40 SHL SUB DUP2 GT ISZERO PUSH2 0x48C JUMPI PUSH1 0x0 DUP1 REVERT JUMPDEST PUSH2 0x498 DUP7 DUP3 DUP8 ADD PUSH2 0x40F JUMP JUMPDEST SWAP5 SWAP8 SWAP1 SWAP7 POP SWAP4 SWAP5 POP POP POP POP JUMP JUMPDEST PUSH1 0x0 DUP1 PUSH1 0x0 DUP1 PUSH1 0x60 DUP6 DUP8 SUB SLT ISZERO PUSH2 0x4BB JUMPI PUSH1 0x0 DUP1 REVERT JUMPDEST DUP5 CALLDATALOAD SWAP4 POP PUSH1 0x20 DUP6 ADD CALLDATALOAD SWAP3 POP PUSH1 0x40 DUP6 ADD CALLDATALOAD PUSH1 0x1 PUSH1 0x1 PUSH1 0x40 SHL SUB DUP2 GT ISZERO PUSH2 0x4DF JUMPI PUSH1 0x0 DUP1 REVERT JUMPDEST PUSH2 0x4EB DUP8 DUP3 DUP9 ADD PUSH2 0x40F JUMP JUMPDEST SWAP6 SWAP9 SWAP5 SWAP8 POP SWAP6 POP POP POP POP JUMP JUMPDEST PUSH1 0x0 PUSH1 0x20 DUP3 DUP5 SUB SLT ISZERO PUSH2 0x509 JUMPI PUSH1 0x0 DUP1 REVERT JUMPDEST POP CALLDATALOAD SWAP2 SWAP1 POP JUMP JUMPDEST PUSH1 0x0 PUSH1 0x1 PUSH1 0x1 PUSH1 0xFB SHL SUB DUP4 GT ISZERO PUSH2 0x526 JUMPI PUSH1 0x0 DUP1 REVERT JUMPDEST DUP3 PUSH1 0x5 SHL DUP1 DUP4 DUP7 CALLDATACOPY SWAP4 SWAP1 SWAP4 ADD SWAP4 SWAP3 POP POP POP JUMP JUMPDEST DUP6 DUP2 MSTORE DUP5 PUSH1 0x20 DUP3 ADD MSTORE DUP4 PUSH1 0x40 DUP3 ADD MSTORE PUSH1 0x0 PUSH2 0x558 PUSH1 0x60 DUP4 ADD DUP5 DUP7 PUSH2 0x510 JUMP JUMPDEST SWAP8 SWAP7 POP POP POP POP POP POP POP JUMP JUMPDEST DUP2 DUP4 MSTORE PUSH1 0x0 PUSH1 0x1 PUSH1 0x1 PUSH1 0xFB SHL SUB DUP4 GT ISZERO PUSH2 0x57C JUMPI PUSH1 0x0 DUP1 REVERT JUMPDEST DUP3 PUSH1 0x5 SHL DUP1 DUP4 PUSH1 0x20 DUP8 ADD CALLDATACOPY SWAP4 SWAP1 SWAP4 ADD PUSH1 0x20 ADD SWAP4 SWAP3 POP POP POP JUMP JUMPDEST PUSH1 0x20 DUP2 MSTORE PUSH1 0x0 PUSH2 0x5A9 PUSH1 0x20 DUP4 ADD DUP5 DUP7 PUSH2 0x563 JUMP JUMPDEST SWAP5 SWAP4 POP POP POP POP JUMP JUMPDEST PUSH4 0x4E487B71 PUSH1 0xE0 SHL PUSH1 0x0 MSTORE PUSH1 0x11 PUSH1 0x4 MSTORE PUSH1 0x24 PUSH1 0x0 REVERT JUMPDEST DUP2 DUP2 SUB DUP2 DUP2 GT ISZERO PUSH2 0x5DA JUMPI PUSH2 0x5DA PUSH2 0x5B1 JUMP JUMPDEST SWAP3 SWAP2 POP POP JUMP JUMPDEST DUP1 DUP3 ADD DUP1 DUP3 GT ISZERO PUSH2 0x5DA JUMPI PUSH2 0x5DA PUSH2 0x5B1 JUMP JUMPDEST PUSH1 0x40 DUP2 MSTORE PUSH1 0x0 PUSH2 0x607 PUSH1 0x40 DUP4 ADD DUP6 DUP8 PUSH2 0x563 JUMP JUMPDEST SWAP1 POP DUP3 PUSH1 0x20 DUP4 ADD MSTORE SWAP5 SWAP4 POP POP POP POP JUMP JUMPDEST DUP8 DUP2 MSTORE DUP7 PUSH1 0x20 DUP3 ADD MSTORE DUP6 PUSH1 0x40 DUP3 ADD MSTORE DUP5 PUSH1 0x60 DUP3 ADD MSTORE DUP4 PUSH1 0x80 DUP3 ADD MSTORE PUSH1 0x0 PUSH2 0x642 PUSH1 0xA0 DUP4 ADD DUP5 DUP7 PUSH2 0x510 JUMP JUMPDEST SWAP10 SWAP9 POP POP POP POP POP POP POP POP POP JUMP JUMPDEST PUSH1 0x0 DUP3 MLOAD PUSH1 0x0 JUMPDEST DUP2 DUP2 LT ISZERO PUSH2 0x670 JUMPI PUSH1 0x20 DUP2 DUP7 ADD DUP2 ADD MLOAD DUP6 DUP4 ADD MSTORE ADD PUSH2 0x656 JUMP JUMPDEST POP PUSH1 0x0 SWAP3 ADD SWAP2 DUP3 MSTORE POP SWAP2 SWAP1 POP JUMP INVALID MSTORE8 SLOAD COINBASE MSTORE 0x4B 0x4E GASLIMIT SLOAD 0x5F BALANCE 0x2E ADDRESS 0x5F 0x4D MSTORE8 SELFBALANCE 0x49 0x4E SELFBALANCE 0x5F 0x4C BALANCE SLOAD 0x4F 0x4C ORIGIN 0x5F 0x4E 0x4F 0x4E NUMBER GASLIMIT MSTORE8 SLOAD COINBASE MSTORE 0x4B 0x4E GASLIMIT SLOAD 0x5F BALANCE 0x2E ADDRESS 0x5F 0x4D MSTORE8 SELFBALANCE 0x49 0x4E SELFBALANCE 0x5F 0x4C ORIGIN SLOAD 0x4F 0x4C BALANCE 0x5F 0x4D COINBASE POP POP POP 0x49 0x4E SELFBALANCE MSTORE8 SLOAD COINBASE MSTORE 0x4B 0x4E GASLIMIT SLOAD 0x5F BALANCE 0x2E ADDRESS 0x5F 0x4D MSTORE8 SELFBALANCE 0x49 0x4E SELFBALANCE 0x5F 0x4C BALANCE SLOAD 0x4F 0x4C ORIGIN 0x5F 0x4D COINBASE POP POP POP 0x49 0x4E SELFBALANCE 0x5F JUMP ORIGIN LOG2 PUSH5 0x6970667358 0x22 SLT KECCAK256 NUMBER 0x5E 0xCE 0x2D EXTCODECOPY 0xD7 DUP13 CALLDATALOAD MSTORE DUP11 EXTCODESIZE CALL PUSH29 0x650094EFC929563088854BFD0948CB8D6DDF3164736F6C634300081100 CALLER "},"methodIdentifiers":{"consumeMessageFromL2(uint256,uint256[])":"2c9dd5c0","l1ToL2MessageNonce()":"018cccdf","l1ToL2Messages(bytes32)":"77c7d7a9","l2ToL1Messages(bytes32)":"a46efaf3","sendMessageToL2(uint256,uint256,uint256[])":"3e3aa6c5"}}}}}