{"contracts/ethereum/TestContracts/MockStarknetMessaging.sol":{"MockStarknetMessaging":{"abi":[{"anonymous":false,"inputs":[{"indexed":true,"internalType":"uint256","name":"from_address","type":"uint256"},{"indexed":true,"internalType":"address","name":"to_address","type":"address"},{"indexed":false,"internalType":"uint256[]","name":"payload","type":"uint256[]"}],"name":"ConsumedMessageToL1","type":"event"},{"anonymous":false,"inputs":[{"indexed":true,"internalType":"address","name":"from_address","type":"address"},{"indexed":true,"internalType":"uint256","name":"to_address","type":"uint256"},{"indexed":true,"internalType":"uint256","name":"selector","type":"uint256"},{"indexed":false,"internalType":"uint256[]","name":"payload","type":"uint256[]"},{"indexed":false,"internalType":"uint256","name":"nonce","type":"uint256"}],"name":"ConsumedMessageToL2","type":"event"},{"anonymous":false,"inputs":[{"indexed":true,"internalType":"uint256","name":"from_address","type":"uint256"},{"indexed":true,"internalType":"address","name":"to_address","type":"address"},{"indexed":false,"internalType":"uint256[]","name":"payload","type":"uint256[]"}],"name":"LogMessageToL1","type":"event"},{"anonymous":false,"inputs":[{"indexed":true,"internalType":"address","name":"from_address","type":"address"},{"indexed":true,"internalType":"uint256","name":"to_address","type":"uint256"},{"indexed":true,"internalType":"uint256","name":"selector","type":"uint256"},{"indexed":false,"internalType":"uint256[]","name":"payload","type":"uint256[]"},{"indexed":false,"internalType":"uint256","name":"nonce","type":"uint256"}],"name":"LogMessageToL2","type":"event"},{"inputs":[{"internalType":"uint256","name":"from_address","type":"uint256"},{"internalType":"uint256[]","name":"payload","type":"uint256[]"}],"name":"consumeMessageFromL2","outputs":[{"internalType":"bytes32","name":"","type":"bytes32"}],"stateMutability":"nonpayable","type":"function"},{"inputs":[],"name":"l1ToL2MessageNonce","outputs":[{"internalType":"uint256","name":"","type":"uint256"}],"stateMutability":"view","type":"function"},{"inputs":[{"internalType":"bytes32","name":"msgHash","type":"bytes32"}],"name":"l1ToL2Messages","outputs":[{"internalType":"uint256","name":"","type":"uint256"}],"stateMutability":"view","type":"function"},{"inputs":[{"internalType":"bytes32","name":"msgHash","type":"bytes32"}],"name":"l2ToL1Messages","outputs":[{"internalType":"uint256","name":"","type":"uint256"}],"stateMutability":"view","type":"function"},{"inputs":[{"internalType":"uint256","name":"from_address","type":"uint256"},{"internalType":"uint256","name":"to_address","type":"uint256"},{"internalType":"uint256","name":"selector","type":"uint256"},{"internalType":"uint256[]","name":"payload","type":"uint256[]"},{"internalType":"uint256","name":"nonce","type":"uint256"}],"name":"mockConsumeMessageToL2","outputs":[],"stateMutability":"nonpayable","type":"function"},{"inputs":[{"internalType":"uint256","name":"from_address","type":"uint256"},{"internalType":"uint256","name":"to_address","type":"uint256"},{"internalType":"uint256[]","name":"payload","type":"uint256[]"}],"name":"mockSendMessageFromL2","outputs":[],"stateMutability":"nonpayable","type":"function"},{"inputs":[{"internalType":"uint256","name":"to_address","type":"uint256"},{"internalType":"uint256","name":"selector","type":"uint256"},{"internalType":"uint256[]","name":"payload","type":"uint256[]"}],"name":"sendMessageToL2","outputs":[{"internalType":"bytes32","name":"","type":"bytes32"}],"stateMutability":"nonpayable","type":"function"}],"evm":{"bytecode":{"linkReferences":{},"object":"608060405234801561001057600080fd5b506108e4806100206000396000f3fe608060405234801561001057600080fd5b506004361061006d5760003560e01c8063018cccdf14610072578063067aba991461008c5780632c9dd5c0146100a15780633e3aa6c5146100b457806377c7d7a9146100c7578063a46efaf3146100da578063d1fb1509146100ed575b600080fd5b61007a610100565b60405190815260200160405180910390f35b61009f61009a366004610585565b610133565b005b61007a6100af3660046105ed565b6101e3565b61007a6100c2366004610638565b6102cc565b61007a6100d536600461068a565b6103cb565b61007a6100e836600461068a565b6103e6565b61009f6100fb366004610638565b6103f0565b600061012e60405180604001604052806020815260200160008051602061084683398151915281525061045a565b905090565b60405160009061015390889088908590899088908a9082906020016106cc565b604051602081830303815290604052805190602001209050600061017561048e565b60008381526020919091526040902054116101ab5760405162461bcd60e51b81526004016101a290610704565b60405180910390fd5b60016101b561048e565b600083815260200190815260200160002060008282546101d5919061074e565b909155505050505050505050565b60405160009081906102019086903390869088908290602001610767565b60405160208183030381529060405280519060200120905060006102236104b1565b60008381526020919091526040902054116102505760405162461bcd60e51b81526004016101a290610704565b336001600160a01b0316857f7a06c571aa77f34d9706c51e5d8122b5595aebeaa34233bfe866f22befb973b1868660405161028c9291906107c3565b60405180910390a3600161029e6104b1565b600083815260200190815260200160002060008282546102be919061074e565b909155509095945050505050565b6000806102d7610100565b905061031260405180604001604052806020815260200160008051602061084683398151915281525082600161030d91906107df565b6104d4565b8486336001600160a01b03167f7d3450d4f5138e54dcb21a322312d50846ead7856426fb38778f8ef33aeccc01878786604051610351939291906107f2565b60405180910390a4604051600090610379903390899085908a9089908b9082906020016106cc565b604051602081830303815290604052805190602001209050600161039b61048e565b600083815260200190815260200160002060008282546103bb91906107df565b9091555090979650505050505050565b60006103d561048e565b600092835260205250604090205490565b60006103d56104b1565b60405160009061040c9086908690859087908290602001610767565b604051602081830303815290604052805190602001209050600161042e6104b1565b6000838152602001908152602001600020600082825461044e91906107df565b90915550505050505050565b6000808260405160200161046e9190610816565b60408051601f198184030181529190528051602090910120549392505050565b600061012e60405180606001604052806026815260200161088960269139610507565b600061012e60405180606001604052806023815260200161086660239139610507565b6000826040516020016104e79190610816565b604051602081830303815290604052805190602001209050818155505050565b6000808260405160200161051b9190610816565b60408051601f1981840301815291905280516020909101209392505050565b60008083601f84011261054c57600080fd5b5081356001600160401b0381111561056357600080fd5b6020830191508360208260051b850101111561057e57600080fd5b9250929050565b60008060008060008060a0878903121561059e57600080fd5b86359550602087013594506040870135935060608701356001600160401b038111156105c957600080fd5b6105d589828a0161053a565b979a9699509497949695608090950135949350505050565b60008060006040848603121561060257600080fd5b8335925060208401356001600160401b0381111561061f57600080fd5b61062b8682870161053a565b9497909650939450505050565b6000806000806060858703121561064e57600080fd5b843593506020850135925060408501356001600160401b0381111561067257600080fd5b61067e8782880161053a565b95989497509550505050565b60006020828403121561069c57600080fd5b5035919050565b60006001600160fb1b038311156106b957600080fd5b8260051b80838637939093019392505050565b87815286602082015285604082015284606082015283608082015260006106f760a0830184866106a3565b9998505050505050505050565b6020808252601a9082015279494e56414c49445f4d4553534147455f544f5f434f4e53554d4560301b604082015260600190565b634e487b7160e01b600052601160045260246000fd5b8181038181111561076157610761610738565b92915050565b85815284602082015283604082015260006107866060830184866106a3565b979650505050505050565b81835260006001600160fb1b038311156107aa57600080fd5b8260051b80836020870137939093016020019392505050565b6020815260006107d7602083018486610791565b949350505050565b8082018082111561076157610761610738565b604081526000610806604083018587610791565b9050826020830152949350505050565b6000825160005b81811015610837576020818601810151858301520161081d565b50600092019182525091905056fe535441524b4e45545f312e305f4d5347494e475f4c31544f4c325f4e4f4e4345535441524b4e45545f312e305f4d5347494e475f4c32544f4c315f4d41505050494e47535441524b4e45545f312e305f4d5347494e475f4c31544f4c325f4d41505050494e475f5632a26469706673582212209ffea03eda685face99ff22d5645b6f416324158ac5d04799bd21a48f66e201664736f6c63430008110033","opcodes":"PUSH1 0x80 PUSH1 0x40 MSTORE CALLVALUE DUP1 ISZERO PUSH2 0x10 JUMPI PUSH1 0x0 DUP1 REVERT JUMPDEST POP PUSH2 0x8E4 DUP1 PUSH2 0x20 PUSH1 0x0 CODECOPY PUSH1 0x0 RETURN INVALID PUSH1 0x80 PUSH1 0x40 MSTORE CALLVALUE DUP1 ISZERO PUSH2 0x10 JUMPI PUSH1 0x0 DUP1 REVERT JUMPDEST POP PUSH1 0x4 CALLDATASIZE LT PUSH2 0x6D JUMPI PUSH1 0x0 CALLDATALOAD PUSH1 0xE0 SHR DUP1 PUSH4 0x18CCCDF EQ PUSH2 0x72 JUMPI DUP1 PUSH4 0x67ABA99 EQ PUSH2 0x8C JUMPI DUP1 PUSH4 0x2C9DD5C0 EQ PUSH2 0xA1 JUMPI DUP1 PUSH4 0x3E3AA6C5 EQ PUSH2 0xB4 JUMPI DUP1 PUSH4 0x77C7D7A9 EQ PUSH2 0xC7 JUMPI DUP1 PUSH4 0xA46EFAF3 EQ PUSH2 0xDA JUMPI DUP1 PUSH4 0xD1FB1509 EQ PUSH2 0xED JUMPI JUMPDEST PUSH1 0x0 DUP1 REVERT JUMPDEST PUSH2 0x7A PUSH2 0x100 JUMP JUMPDEST PUSH1 0x40 MLOAD SWAP1 DUP2 MSTORE PUSH1 0x20 ADD PUSH1 0x40 MLOAD DUP1 SWAP2 SUB SWAP1 RETURN JUMPDEST PUSH2 0x9F PUSH2 0x9A CALLDATASIZE PUSH1 0x4 PUSH2 0x585 JUMP JUMPDEST PUSH2 0x133 JUMP JUMPDEST STOP JUMPDEST PUSH2 0x7A PUSH2 0xAF CALLDATASIZE PUSH1 0x4 PUSH2 0x5ED JUMP JUMPDEST PUSH2 0x1E3 JUMP JUMPDEST PUSH2 0x7A PUSH2 0xC2 CALLDATASIZE PUSH1 0x4 PUSH2 0x638 JUMP JUMPDEST PUSH2 0x2CC JUMP JUMPDEST PUSH2 0x7A PUSH2 0xD5 CALLDATASIZE PUSH1 0x4 PUSH2 0x68A JUMP JUMPDEST PUSH2 0x3CB JUMP JUMPDEST PUSH2 0x7A PUSH2 0xE8 CALLDATASIZE PUSH1 0x4 PUSH2 0x68A JUMP JUMPDEST PUSH2 0x3E6 JUMP JUMPDEST PUSH2 0x9F PUSH2 0xFB CALLDATASIZE PUSH1 0x4 PUSH2 0x638 JUMP JUMPDEST PUSH2 0x3F0 JUMP JUMPDEST PUSH1 0x0 PUSH2 0x12E PUSH1 0x40 MLOAD DUP1 PUSH1 0x40 ADD PUSH1 0x40 MSTORE DUP1 PUSH1 0x20 DUP2 MSTORE PUSH1 0x20 ADD PUSH1 0x0 DUP1 MLOAD PUSH1 0x20 PUSH2 0x846 DUP4 CODECOPY DUP2 MLOAD SWAP2 MSTORE DUP2 MSTORE POP PUSH2 0x45A JUMP JUMPDEST SWAP1 POP SWAP1 JUMP JUMPDEST PUSH1 0x40 MLOAD PUSH1 0x0 SWAP1 PUSH2 0x153 SWAP1 DUP9 SWAP1 DUP9 SWAP1 DUP6 SWAP1 DUP10 SWAP1 DUP9 SWAP1 DUP11 SWAP1 DUP3 SWAP1 PUSH1 0x20 ADD PUSH2 0x6CC JUMP JUMPDEST PUSH1 0x40 MLOAD PUSH1 0x20 DUP2 DUP4 SUB SUB DUP2 MSTORE SWAP1 PUSH1 0x40 MSTORE DUP1 MLOAD SWAP1 PUSH1 0x20 ADD KECCAK256 SWAP1 POP PUSH1 0x0 PUSH2 0x175 PUSH2 0x48E JUMP JUMPDEST PUSH1 0x0 DUP4 DUP2 MSTORE PUSH1 0x20 SWAP2 SWAP1 SWAP2 MSTORE PUSH1 0x40 SWAP1 KECCAK256 SLOAD GT PUSH2 0x1AB JUMPI PUSH1 0x40 MLOAD PUSH3 0x461BCD PUSH1 0xE5 SHL DUP2 MSTORE PUSH1 0x4 ADD PUSH2 0x1A2 SWAP1 PUSH2 0x704 JUMP JUMPDEST PUSH1 0x40 MLOAD DUP1 SWAP2 SUB SWAP1 REVERT JUMPDEST PUSH1 0x1 PUSH2 0x1B5 PUSH2 0x48E JUMP JUMPDEST PUSH1 0x0 DUP4 DUP2 MSTORE PUSH1 0x20 ADD SWAP1 DUP2 MSTORE PUSH1 0x20 ADD PUSH1 0x0 KECCAK256 PUSH1 0x0 DUP3 DUP3 SLOAD PUSH2 0x1D5 SWAP2 SWAP1 PUSH2 0x74E JUMP JUMPDEST SWAP1 SWAP2 SSTORE POP POP POP POP POP POP POP POP POP JUMP JUMPDEST PUSH1 0x40 MLOAD PUSH1 0x0 SWAP1 DUP2 SWAP1 PUSH2 0x201 SWAP1 DUP7 SWAP1 CALLER SWAP1 DUP7 SWAP1 DUP9 SWAP1 DUP3 SWAP1 PUSH1 0x20 ADD PUSH2 0x767 JUMP JUMPDEST PUSH1 0x40 MLOAD PUSH1 0x20 DUP2 DUP4 SUB SUB DUP2 MSTORE SWAP1 PUSH1 0x40 MSTORE DUP1 MLOAD SWAP1 PUSH1 0x20 ADD KECCAK256 SWAP1 POP PUSH1 0x0 PUSH2 0x223 PUSH2 0x4B1 JUMP JUMPDEST PUSH1 0x0 DUP4 DUP2 MSTORE PUSH1 0x20 SWAP2 SWAP1 SWAP2 MSTORE PUSH1 0x40 SWAP1 KECCAK256 SLOAD GT PUSH2 0x250 JUMPI PUSH1 0x40 MLOAD PUSH3 0x461BCD PUSH1 0xE5 SHL DUP2 MSTORE PUSH1 0x4 ADD PUSH2 0x1A2 SWAP1 PUSH2 0x704 JUMP JUMPDEST CALLER PUSH1 0x1 PUSH1 0x1 PUSH1 0xA0 SHL SUB AND DUP6 PUSH32 0x7A06C571AA77F34D9706C51E5D8122B5595AEBEAA34233BFE866F22BEFB973B1 DUP7 DUP7 PUSH1 0x40 MLOAD PUSH2 0x28C SWAP3 SWAP2 SWAP1 PUSH2 0x7C3 JUMP JUMPDEST PUSH1 0x40 MLOAD DUP1 SWAP2 SUB SWAP1 LOG3 PUSH1 0x1 PUSH2 0x29E PUSH2 0x4B1 JUMP JUMPDEST PUSH1 0x0 DUP4 DUP2 MSTORE PUSH1 0x20 ADD SWAP1 DUP2 MSTORE PUSH1 0x20 ADD PUSH1 0x0 KECCAK256 PUSH1 0x0 DUP3 DUP3 SLOAD PUSH2 0x2BE SWAP2 SWAP1 PUSH2 0x74E JUMP JUMPDEST SWAP1 SWAP2 SSTORE POP SWAP1 SWAP6 SWAP5 POP POP POP POP POP JUMP JUMPDEST PUSH1 0x0 DUP1 PUSH2 0x2D7 PUSH2 0x100 JUMP JUMPDEST SWAP1 POP PUSH2 0x312 PUSH1 0x40 MLOAD DUP1 PUSH1 0x40 ADD PUSH1 0x40 MSTORE DUP1 PUSH1 0x20 DUP2 MSTORE PUSH1 0x20 ADD PUSH1 0x0 DUP1 MLOAD PUSH1 0x20 PUSH2 0x846 DUP4 CODECOPY DUP2 MLOAD SWAP2 MSTORE DUP2 MSTORE POP DUP3 PUSH1 0x1 PUSH2 0x30D SWAP2 SWAP1 PUSH2 0x7DF JUMP JUMPDEST PUSH2 0x4D4 JUMP JUMPDEST DUP5 DUP7 CALLER PUSH1 0x1 PUSH1 0x1 PUSH1 0xA0 SHL SUB AND PUSH32 0x7D3450D4F5138E54DCB21A322312D50846EAD7856426FB38778F8EF33AECCC01 DUP8 DUP8 DUP7 PUSH1 0x40 MLOAD PUSH2 0x351 SWAP4 SWAP3 SWAP2 SWAP1 PUSH2 0x7F2 JUMP JUMPDEST PUSH1 0x40 MLOAD DUP1 SWAP2 SUB SWAP1 LOG4 PUSH1 0x40 MLOAD PUSH1 0x0 SWAP1 PUSH2 0x379 SWAP1 CALLER SWAP1 DUP10 SWAP1 DUP6 SWAP1 DUP11 SWAP1 DUP10 SWAP1 DUP12 SWAP1 DUP3 SWAP1 PUSH1 0x20 ADD PUSH2 0x6CC JUMP JUMPDEST PUSH1 0x40 MLOAD PUSH1 0x20 DUP2 DUP4 SUB SUB DUP2 MSTORE SWAP1 PUSH1 0x40 MSTORE DUP1 MLOAD SWAP1 PUSH1 0x20 ADD KECCAK256 SWAP1 POP PUSH1 0x1 PUSH2 0x39B PUSH2 0x48E JUMP JUMPDEST PUSH1 0x0 DUP4 DUP2 MSTORE PUSH1 0x20 ADD SWAP1 DUP2 MSTORE PUSH1 0x20 ADD PUSH1 0x0 KECCAK256 PUSH1 0x0 DUP3 DUP3 SLOAD PUSH2 0x3BB SWAP2 SWAP1 PUSH2 0x7DF JUMP JUMPDEST SWAP1 SWAP2 SSTORE POP SWAP1 SWAP8 SWAP7 POP POP POP POP POP POP POP JUMP JUMPDEST PUSH1 0x0 PUSH2 0x3D5 PUSH2 0x48E JUMP JUMPDEST PUSH1 0x0 SWAP3 DUP4 MSTORE PUSH1 0x20 MSTORE POP PUSH1 0x40 SWAP1 KECCAK256 SLOAD SWAP1 JUMP JUMPDEST PUSH1 0x0 PUSH2 0x3D5 PUSH2 0x4B1 JUMP JUMPDEST PUSH1 0x40 MLOAD PUSH1 0x0 SWAP1 PUSH2 0x40C SWAP1 DUP7 SWAP1 DUP7 SWAP1 DUP6 SWAP1 DUP8 SWAP1 DUP3 SWAP1 PUSH1 0x20 ADD PUSH2 0x767 JUMP JUMPDEST PUSH1 0x40 MLOAD PUSH1 0x20 DUP2 DUP4 SUB SUB DUP2 MSTORE SWAP1 PUSH1 0x40 MSTORE DUP1 MLOAD SWAP1 PUSH1 0x20 ADD KECCAK256 SWAP1 POP PUSH1 0x1 PUSH2 0x42E PUSH2 0x4B1 JUMP JUMPDEST PUSH1 0x0 DUP4 DUP2 MSTORE PUSH1 0x20 ADD SWAP1 DUP2 MSTORE PUSH1 0x20 ADD PUSH1 0x0 KECCAK256 PUSH1 0x0 DUP3 DUP3 SLOAD PUSH2 0x44E SWAP2 SWAP1 PUSH2 0x7DF JUMP JUMPDEST SWAP1 SWAP2 SSTORE POP POP POP POP POP POP POP JUMP JUMPDEST PUSH1 0x0 DUP1 DUP3 PUSH1 0x40 MLOAD PUSH1 0x20 ADD PUSH2 0x46E SWAP2 SWAP1 PUSH2 0x816 JUMP JUMPDEST PUSH1 0x40 DUP1 MLOAD PUSH1 0x1F NOT DUP2 DUP5 SUB ADD DUP2 MSTORE SWAP2 SWAP1 MSTORE DUP1 MLOAD PUSH1 0x20 SWAP1 SWAP2 ADD KECCAK256 SLOAD SWAP4 SWAP3 POP POP POP JUMP JUMPDEST PUSH1 0x0 PUSH2 0x12E PUSH1 0x40 MLOAD DUP1 PUSH1 0x60 ADD PUSH1 0x40 MSTORE DUP1 PUSH1 0x26 DUP2 MSTORE PUSH1 0x20 ADD PUSH2 0x889 PUSH1 0x26 SWAP2 CODECOPY PUSH2 0x507 JUMP JUMPDEST PUSH1 0x0 PUSH2 0x12E PUSH1 0x40 MLOAD DUP1 PUSH1 0x60 ADD PUSH1 0x40 MSTORE DUP1 PUSH1 0x23 DUP2 MSTORE PUSH1 0x20 ADD PUSH2 0x866 PUSH1 0x23 SWAP2 CODECOPY PUSH2 0x507 JUMP JUMPDEST PUSH1 0x0 DUP3 PUSH1 0x40 MLOAD PUSH1 0x20 ADD PUSH2 0x4E7 SWAP2 SWAP1 PUSH2 0x816 JUMP JUMPDEST PUSH1 0x40 MLOAD PUSH1 0x20 DUP2 DUP4 SUB SUB DUP2 MSTORE SWAP1 PUSH1 0x40 MSTORE DUP1 MLOAD SWAP1 PUSH1 0x20 ADD KECCAK256 SWAP1 POP DUP2 DUP2 SSTORE POP POP POP JUMP JUMPDEST PUSH1 0x0 DUP1 DUP3 PUSH1 0x40 MLOAD PUSH1 0x20 ADD PUSH2 0x51B SWAP2 SWAP1 PUSH2 0x816 JUMP JUMPDEST PUSH1 0x40 DUP1 MLOAD PUSH1 0x1F NOT DUP2 DUP5 SUB ADD DUP2 MSTORE SWAP2 SWAP1 MSTORE DUP1 MLOAD PUSH1 0x20 SWAP1 SWAP2 ADD KECCAK256 SWAP4 SWAP3 POP POP POP JUMP JUMPDEST PUSH1 0x0 DUP1 DUP4 PUSH1 0x1F DUP5 ADD SLT PUSH2 0x54C JUMPI PUSH1 0x0 DUP1 REVERT JUMPDEST POP DUP2 CALLDATALOAD PUSH1 0x1 PUSH1 0x1 PUSH1 0x40 SHL SUB DUP2 GT ISZERO PUSH2 0x563 JUMPI PUSH1 0x0 DUP1 REVERT JUMPDEST PUSH1 0x20 DUP4 ADD SWAP2 POP DUP4 PUSH1 0x20 DUP3 PUSH1 0x5 SHL DUP6 ADD ADD GT ISZERO PUSH2 0x57E JUMPI PUSH1 0x0 DUP1 REVERT JUMPDEST SWAP3 POP SWAP3 SWAP1 POP JUMP JUMPDEST PUSH1 0x0 DUP1 PUSH1 0x0 DUP1 PUSH1 0x0 DUP1 PUSH1 0xA0 DUP8 DUP10 SUB SLT ISZERO PUSH2 0x59E JUMPI PUSH1 0x0 DUP1 REVERT JUMPDEST DUP7 CALLDATALOAD SWAP6 POP PUSH1 0x20 DUP8 ADD CALLDATALOAD SWAP5 POP PUSH1 0x40 DUP8 ADD CALLDATALOAD SWAP4 POP PUSH1 0x60 DUP8 ADD CALLDATALOAD PUSH1 0x1 PUSH1 0x1 PUSH1 0x40 SHL SUB DUP2 GT ISZERO PUSH2 0x5C9 JUMPI PUSH1 0x0 DUP1 REVERT JUMPDEST PUSH2 0x5D5 DUP10 DUP3 DUP11 ADD PUSH2 0x53A JUMP JUMPDEST SWAP8 SWAP11 SWAP7 SWAP10 POP SWAP5 SWAP8 SWAP5 SWAP7 SWAP6 PUSH1 0x80 SWAP1 SWAP6 ADD CALLDATALOAD SWAP5 SWAP4 POP POP POP POP JUMP JUMPDEST PUSH1 0x0 DUP1 PUSH1 0x0 PUSH1 0x40 DUP5 DUP7 SUB SLT ISZERO PUSH2 0x602 JUMPI PUSH1 0x0 DUP1 REVERT JUMPDEST DUP4 CALLDATALOAD SWAP3 POP PUSH1 0x20 DUP5 ADD CALLDATALOAD PUSH1 0x1 PUSH1 0x1 PUSH1 0x40 SHL SUB DUP2 GT ISZERO PUSH2 0x61F JUMPI PUSH1 0x0 DUP1 REVERT JUMPDEST PUSH2 0x62B DUP7 DUP3 DUP8 ADD PUSH2 0x53A JUMP JUMPDEST SWAP5 SWAP8 SWAP1 SWAP7 POP SWAP4 SWAP5 POP POP POP POP JUMP JUMPDEST PUSH1 0x0 DUP1 PUSH1 0x0 DUP1 PUSH1 0x60 DUP6 DUP8 SUB SLT ISZERO PUSH2 0x64E JUMPI PUSH1 0x0 DUP1 REVERT JUMPDEST DUP5 CALLDATALOAD SWAP4 POP PUSH1 0x20 DUP6 ADD CALLDATALOAD SWAP3 POP PUSH1 0x40 DUP6 ADD CALLDATALOAD PUSH1 0x1 PUSH1 0x1 PUSH1 0x40 SHL SUB DUP2 GT ISZERO PUSH2 0x672 JUMPI PUSH1 0x0 DUP1 REVERT JUMPDEST PUSH2 0x67E DUP8 DUP3 DUP9 ADD PUSH2 0x53A JUMP JUMPDEST SWAP6 SWAP9 SWAP5 SWAP8 POP SWAP6 POP POP POP POP JUMP JUMPDEST PUSH1 0x0 PUSH1 0x20 DUP3 DUP5 SUB SLT ISZERO PUSH2 0x69C JUMPI PUSH1 0x0 DUP1 REVERT JUMPDEST POP CALLDATALOAD SWAP2 SWAP1 POP JUMP JUMPDEST PUSH1 0x0 PUSH1 0x1 PUSH1 0x1 PUSH1 0xFB SHL SUB DUP4 GT ISZERO PUSH2 0x6B9 JUMPI PUSH1 0x0 DUP1 REVERT JUMPDEST DUP3 PUSH1 0x5 SHL DUP1 DUP4 DUP7 CALLDATACOPY SWAP4 SWAP1 SWAP4 ADD SWAP4 SWAP3 POP POP POP JUMP JUMPDEST DUP8 DUP2 MSTORE DUP7 PUSH1 0x20 DUP3 ADD MSTORE DUP6 PUSH1 0x40 DUP3 ADD MSTORE DUP5 PUSH1 0x60 DUP3 ADD MSTORE DUP4 PUSH1 0x80 DUP3 ADD MSTORE PUSH1 0x0 PUSH2 0x6F7 PUSH1 0xA0 DUP4 ADD DUP5 DUP7 PUSH2 0x6A3 JUMP JUMPDEST SWAP10 SWAP9 POP POP POP POP POP POP POP POP POP JUMP JUMPDEST PUSH1 0x20 DUP1 DUP3 MSTORE PUSH1 0x1A SWAP1 DUP3 ADD MSTORE PUSH26 0x494E56414C49445F4D4553534147455F544F5F434F4E53554D45 PUSH1 0x30 SHL PUSH1 0x40 DUP3 ADD MSTORE PUSH1 0x60 ADD SWAP1 JUMP JUMPDEST PUSH4 0x4E487B71 PUSH1 0xE0 SHL PUSH1 0x0 MSTORE PUSH1 0x11 PUSH1 0x4 MSTORE PUSH1 0x24 PUSH1 0x0 REVERT JUMPDEST DUP2 DUP2 SUB DUP2 DUP2 GT ISZERO PUSH2 0x761 JUMPI PUSH2 0x761 PUSH2 0x738 JUMP JUMPDEST SWAP3 SWAP2 POP POP JUMP JUMPDEST DUP6 DUP2 MSTORE DUP5 PUSH1 0x20 DUP3 ADD MSTORE DUP4 PUSH1 0x40 DUP3 ADD MSTORE PUSH1 0x0 PUSH2 0x786 PUSH1 0x60 DUP4 ADD DUP5 DUP7 PUSH2 0x6A3 JUMP JUMPDEST SWAP8 SWAP7 POP POP POP POP POP POP POP JUMP JUMPDEST DUP2 DUP4 MSTORE PUSH1 0x0 PUSH1 0x1 PUSH1 0x1 PUSH1 0xFB SHL SUB DUP4 GT ISZERO PUSH2 0x7AA JUMPI PUSH1 0x0 DUP1 REVERT JUMPDEST DUP3 PUSH1 0x5 SHL DUP1 DUP4 PUSH1 0x20 DUP8 ADD CALLDATACOPY SWAP4 SWAP1 SWAP4 ADD PUSH1 0x20 ADD SWAP4 SWAP3 POP POP POP JUMP JUMPDEST PUSH1 0x20 DUP2 MSTORE PUSH1 0x0 PUSH2 0x7D7 PUSH1 0x20 DUP4 ADD DUP5 DUP7 PUSH2 0x791 JUMP JUMPDEST SWAP5 SWAP4 POP POP POP POP JUMP JUMPDEST DUP1 DUP3 ADD DUP1 DUP3 GT ISZERO PUSH2 0x761 JUMPI PUSH2 0x761 PUSH2 0x738 JUMP JUMPDEST PUSH1 0x40 DUP2 MSTORE PUSH1 0x0 PUSH2 0x806 PUSH1 0x40 DUP4 ADD DUP6 DUP8 PUSH2 0x791 JUMP JUMPDEST SWAP1 POP DUP3 PUSH1 0x20 DUP4 ADD MSTORE SWAP5 SWAP4 POP POP POP POP JUMP JUMPDEST PUSH1 0x0 DUP3 MLOAD PUSH1 0x0 JUMPDEST DUP2 DUP2 LT ISZERO PUSH2 0x837 JUMPI PUSH1 0x20 DUP2 DUP7 ADD DUP2 ADD MLOAD DUP6 DUP4 ADD MSTORE ADD PUSH2 0x81D JUMP JUMPDEST POP PUSH1 0x0 SWAP3 ADD SWAP2 DUP3 MSTORE POP SWAP2 SWAP1 POP JUMP INVALID MSTORE8 SLOAD COINBASE MSTORE 0x4B 0x4E GASLIMIT SLOAD 0x5F BALANCE 0x2E ADDRESS 0x5F 0x4D MSTORE8 SELFBALANCE 0x49 0x4E SELFBALANCE 0x5F 0x4C BALANCE SLOAD 0x4F 0x4C ORIGIN 0x5F 0x4E 0x4F 0x4E NUMBER GASLIMIT MSTORE8 SLOAD COINBASE MSTORE 0x4B 0x4E GASLIMIT SLOAD 0x5F BALANCE 0x2E ADDRESS 0x5F 0x4D MSTORE8 SELFBALANCE 0x49 0x4E SELFBALANCE 0x5F 0x4C ORIGIN SLOAD 0x4F 0x4C BALANCE 0x5F 0x4D COINBASE POP POP POP 0x49 0x4E SELFBALANCE MSTORE8 SLOAD COINBASE MSTORE 0x4B 0x4E GASLIMIT SLOAD 0x5F BALANCE 0x2E ADDRESS 0x5F 0x4D MSTORE8 SELFBALANCE 0x49 0x4E SELFBALANCE 0x5F 0x4C BALANCE SLOAD 0x4F 0x4C ORIGIN 0x5F 0x4D COINBASE POP POP POP 0x49 0x4E SELFBALANCE 0x5F JUMP ORIGIN LOG2 PUSH5 0x6970667358 0x22 SLT KECCAK256 SWAP16 INVALID LOG0 RETURNDATACOPY 0xDA PUSH9 0x5FACE99FF22D5645B6 DELEGATECALL AND ORIGIN COINBASE PC 0xAC 0x5D DIV PUSH26 0x9BD21A48F66E201664736F6C6343000811003300000000000000 "},"methodIdentifiers":{"consumeMessageFromL2(uint256,uint256[])":"2c9dd5c0","l1ToL2MessageNonce()":"018cccdf","l1ToL2Messages(bytes32)":"77c7d7a9","l2ToL1Messages(bytes32)":"a46efaf3","mockConsumeMessageToL2(uint256,uint256,uint256,uint256[],uint256)":"067aba99","mockSendMessageFromL2(uint256,uint256,uint256[])":"d1fb1509","sendMessageToL2(uint256,uint256,uint256[])":"3e3aa6c5"}}}}}