{"contracts/ethereum/ZodiacModule/ProposalRelayer.sol":{"SnapshotXProposalRelayer":{"abi":[{"inputs":[{"internalType":"address","name":"guard_","type":"address"}],"name":"NotIERC165Compliant","type":"error"},{"anonymous":false,"inputs":[{"indexed":false,"internalType":"address","name":"guard","type":"address"}],"name":"ChangedGuard","type":"event"},{"anonymous":false,"inputs":[{"indexed":false,"internalType":"uint256","name":"_l2ExecutionRelayer","type":"uint256"}],"name":"ChangedL2ExecutionRelayer","type":"event"},{"anonymous":false,"inputs":[{"indexed":false,"internalType":"uint8","name":"version","type":"uint8"}],"name":"Initialized","type":"event"},{"anonymous":false,"inputs":[{"indexed":true,"internalType":"address","name":"previousOwner","type":"address"},{"indexed":true,"internalType":"address","name":"newOwner","type":"address"}],"name":"OwnershipTransferred","type":"event"},{"inputs":[{"internalType":"uint256","name":"_l2ExecutionRelayer","type":"uint256"}],"name":"changeL2ExecutionRelayer","outputs":[],"stateMutability":"nonpayable","type":"function"},{"inputs":[],"name":"getGuard","outputs":[{"internalType":"address","name":"_guard","type":"address"}],"stateMutability":"view","type":"function"},{"inputs":[],"name":"guard","outputs":[{"internalType":"address","name":"","type":"address"}],"stateMutability":"view","type":"function"},{"inputs":[],"name":"l2ExecutionRelayer","outputs":[{"internalType":"uint256","name":"","type":"uint256"}],"stateMutability":"view","type":"function"},{"inputs":[],"name":"owner","outputs":[{"internalType":"address","name":"","type":"address"}],"stateMutability":"view","type":"function"},{"inputs":[],"name":"renounceOwnership","outputs":[],"stateMutability":"nonpayable","type":"function"},{"inputs":[{"internalType":"address","name":"_guard","type":"address"}],"name":"setGuard","outputs":[],"stateMutability":"nonpayable","type":"function"},{"inputs":[],"name":"starknetCore","outputs":[{"internalType":"contract MockStarknetMessaging","name":"","type":"address"}],"stateMutability":"view","type":"function"},{"inputs":[{"internalType":"address","name":"newOwner","type":"address"}],"name":"transferOwnership","outputs":[],"stateMutability":"nonpayable","type":"function"}],"evm":{"bytecode":{"linkReferences":{},"object":"608060405234801561001057600080fd5b50610477806100206000396000f3fe608060405234801561001057600080fd5b50600436106100835760003560e01c806339e730ab146100885780633b0def76146100b15780635394b400146100c8578063715018a6146100dd5780637ceab3b1146100e55780638da5cb5b146100f8578063c910638914610100578063e19a9dd914610111578063f2fde38b14610124575b600080fd5b60665461009b906001600160a01b031681565b6040516100a891906103c2565b60405180910390f35b6100ba60675481565b6040519081526020016100a8565b6100db6100d63660046103d6565b610137565b005b6100db61017b565b60655461009b906001600160a01b031681565b61009b61018f565b6065546001600160a01b031661009b565b6100db61011f3660046103ef565b61019e565b6100db6101323660046103ef565b610298565b61013f610311565b60678190556040518181527fc81482cec227d3b66d5367928153ef6affe135059868a5538b27ada88e3f3b1d906020015b60405180910390a150565b610183610311565b61018d6000610370565b565b6033546001600160a01b031690565b6101a6610311565b6001600160a01b0381161561024c576040516301ffc9a760e01b815263736bd41d60e11b60048201526001600160a01b038216906301ffc9a790602401602060405180830381865afa158015610200573d6000803e3d6000fd5b505050506040513d601f19601f82011682018060405250810190610224919061041f565b61024c57806040516358b7533f60e11b815260040161024391906103c2565b60405180910390fd5b606580546001600160a01b0319166001600160a01b0383169081179091556040517f1151116914515bc0891ff9047a6cb32cf902546f83066499bcf8ba33d2353fa291610170916103c2565b6102a0610311565b6001600160a01b0381166103055760405162461bcd60e51b815260206004820152602660248201527f4f776e61626c653a206e6577206f776e657220697320746865207a65726f206160448201526564647265737360d01b6064820152608401610243565b61030e81610370565b50565b3361031a61018f565b6001600160a01b03161461018d5760405162461bcd60e51b815260206004820181905260248201527f4f776e61626c653a2063616c6c6572206973206e6f7420746865206f776e65726044820152606401610243565b603380546001600160a01b038381166001600160a01b0319831681179093556040519116919082907f8be0079c531659141344cd1fd0a4f28419497f9722a3daafe3b4186f6b6457e090600090a35050565b6001600160a01b0391909116815260200190565b6000602082840312156103e857600080fd5b5035919050565b60006020828403121561040157600080fd5b81356001600160a01b038116811461041857600080fd5b9392505050565b60006020828403121561043157600080fd5b8151801515811461041857600080fdfea2646970667358221220e3176de6a4e22960d2ff55e1d65238cd4b400ef672a584f51872d8288954809964736f6c63430008110033","opcodes":"PUSH1 0x80 PUSH1 0x40 MSTORE CALLVALUE DUP1 ISZERO PUSH2 0x10 JUMPI PUSH1 0x0 DUP1 REVERT JUMPDEST POP PUSH2 0x477 DUP1 PUSH2 0x20 PUSH1 0x0 CODECOPY PUSH1 0x0 RETURN INVALID PUSH1 0x80 PUSH1 0x40 MSTORE CALLVALUE DUP1 ISZERO PUSH2 0x10 JUMPI PUSH1 0x0 DUP1 REVERT JUMPDEST POP PUSH1 0x4 CALLDATASIZE LT PUSH2 0x83 JUMPI PUSH1 0x0 CALLDATALOAD PUSH1 0xE0 SHR DUP1 PUSH4 0x39E730AB EQ PUSH2 0x88 JUMPI DUP1 PUSH4 0x3B0DEF76 EQ PUSH2 0xB1 JUMPI DUP1 PUSH4 0x5394B400 EQ PUSH2 0xC8 JUMPI DUP1 PUSH4 0x715018A6 EQ PUSH2 0xDD JUMPI DUP1 PUSH4 0x7CEAB3B1 EQ PUSH2 0xE5 JUMPI DUP1 PUSH4 0x8DA5CB5B EQ PUSH2 0xF8 JUMPI DUP1 PUSH4 0xC9106389 EQ PUSH2 0x100 JUMPI DUP1 PUSH4 0xE19A9DD9 EQ PUSH2 0x111 JUMPI DUP1 PUSH4 0xF2FDE38B EQ PUSH2 0x124 JUMPI JUMPDEST PUSH1 0x0 DUP1 REVERT JUMPDEST PUSH1 0x66 SLOAD PUSH2 0x9B SWAP1 PUSH1 0x1 PUSH1 0x1 PUSH1 0xA0 SHL SUB AND DUP2 JUMP JUMPDEST PUSH1 0x40 MLOAD PUSH2 0xA8 SWAP2 SWAP1 PUSH2 0x3C2 JUMP JUMPDEST PUSH1 0x40 MLOAD DUP1 SWAP2 SUB SWAP1 RETURN JUMPDEST PUSH2 0xBA PUSH1 0x67 SLOAD DUP2 JUMP JUMPDEST PUSH1 0x40 MLOAD SWAP1 DUP2 MSTORE PUSH1 0x20 ADD PUSH2 0xA8 JUMP JUMPDEST PUSH2 0xDB PUSH2 0xD6 CALLDATASIZE PUSH1 0x4 PUSH2 0x3D6 JUMP JUMPDEST PUSH2 0x137 JUMP JUMPDEST STOP JUMPDEST PUSH2 0xDB PUSH2 0x17B JUMP JUMPDEST PUSH1 0x65 SLOAD PUSH2 0x9B SWAP1 PUSH1 0x1 PUSH1 0x1 PUSH1 0xA0 SHL SUB AND DUP2 JUMP JUMPDEST PUSH2 0x9B PUSH2 0x18F JUMP JUMPDEST PUSH1 0x65 SLOAD PUSH1 0x1 PUSH1 0x1 PUSH1 0xA0 SHL SUB AND PUSH2 0x9B JUMP JUMPDEST PUSH2 0xDB PUSH2 0x11F CALLDATASIZE PUSH1 0x4 PUSH2 0x3EF JUMP JUMPDEST PUSH2 0x19E JUMP JUMPDEST PUSH2 0xDB PUSH2 0x132 CALLDATASIZE PUSH1 0x4 PUSH2 0x3EF JUMP JUMPDEST PUSH2 0x298 JUMP JUMPDEST PUSH2 0x13F PUSH2 0x311 JUMP JUMPDEST PUSH1 0x67 DUP2 SWAP1 SSTORE PUSH1 0x40 MLOAD DUP2 DUP2 MSTORE PUSH32 0xC81482CEC227D3B66D5367928153EF6AFFE135059868A5538B27ADA88E3F3B1D SWAP1 PUSH1 0x20 ADD JUMPDEST PUSH1 0x40 MLOAD DUP1 SWAP2 SUB SWAP1 LOG1 POP JUMP JUMPDEST PUSH2 0x183 PUSH2 0x311 JUMP JUMPDEST PUSH2 0x18D PUSH1 0x0 PUSH2 0x370 JUMP JUMPDEST JUMP JUMPDEST PUSH1 0x33 SLOAD PUSH1 0x1 PUSH1 0x1 PUSH1 0xA0 SHL SUB AND SWAP1 JUMP JUMPDEST PUSH2 0x1A6 PUSH2 0x311 JUMP JUMPDEST PUSH1 0x1 PUSH1 0x1 PUSH1 0xA0 SHL SUB DUP2 AND ISZERO PUSH2 0x24C JUMPI PUSH1 0x40 MLOAD PUSH4 0x1FFC9A7 PUSH1 0xE0 SHL DUP2 MSTORE PUSH4 0x736BD41D PUSH1 0xE1 SHL PUSH1 0x4 DUP3 ADD MSTORE PUSH1 0x1 PUSH1 0x1 PUSH1 0xA0 SHL SUB DUP3 AND SWAP1 PUSH4 0x1FFC9A7 SWAP1 PUSH1 0x24 ADD PUSH1 0x20 PUSH1 0x40 MLOAD DUP1 DUP4 SUB DUP2 DUP7 GAS STATICCALL ISZERO DUP1 ISZERO PUSH2 0x200 JUMPI RETURNDATASIZE PUSH1 0x0 DUP1 RETURNDATACOPY RETURNDATASIZE PUSH1 0x0 REVERT JUMPDEST POP POP POP POP PUSH1 0x40 MLOAD RETURNDATASIZE PUSH1 0x1F NOT PUSH1 0x1F DUP3 ADD AND DUP3 ADD DUP1 PUSH1 0x40 MSTORE POP DUP2 ADD SWAP1 PUSH2 0x224 SWAP2 SWAP1 PUSH2 0x41F JUMP JUMPDEST PUSH2 0x24C JUMPI DUP1 PUSH1 0x40 MLOAD PUSH4 0x58B7533F PUSH1 0xE1 SHL DUP2 MSTORE PUSH1 0x4 ADD PUSH2 0x243 SWAP2 SWAP1 PUSH2 0x3C2 JUMP JUMPDEST PUSH1 0x40 MLOAD DUP1 SWAP2 SUB SWAP1 REVERT JUMPDEST PUSH1 0x65 DUP1 SLOAD PUSH1 0x1 PUSH1 0x1 PUSH1 0xA0 SHL SUB NOT AND PUSH1 0x1 PUSH1 0x1 PUSH1 0xA0 SHL SUB DUP4 AND SWAP1 DUP2 OR SWAP1 SWAP2 SSTORE PUSH1 0x40 MLOAD PUSH32 0x1151116914515BC0891FF9047A6CB32CF902546F83066499BCF8BA33D2353FA2 SWAP2 PUSH2 0x170 SWAP2 PUSH2 0x3C2 JUMP JUMPDEST PUSH2 0x2A0 PUSH2 0x311 JUMP JUMPDEST PUSH1 0x1 PUSH1 0x1 PUSH1 0xA0 SHL SUB DUP2 AND PUSH2 0x305 JUMPI PUSH1 0x40 MLOAD PUSH3 0x461BCD PUSH1 0xE5 SHL DUP2 MSTORE PUSH1 0x20 PUSH1 0x4 DUP3 ADD MSTORE PUSH1 0x26 PUSH1 0x24 DUP3 ADD MSTORE PUSH32 0x4F776E61626C653A206E6577206F776E657220697320746865207A65726F2061 PUSH1 0x44 DUP3 ADD MSTORE PUSH6 0x646472657373 PUSH1 0xD0 SHL PUSH1 0x64 DUP3 ADD MSTORE PUSH1 0x84 ADD PUSH2 0x243 JUMP JUMPDEST PUSH2 0x30E DUP2 PUSH2 0x370 JUMP JUMPDEST POP JUMP JUMPDEST CALLER PUSH2 0x31A PUSH2 0x18F JUMP JUMPDEST PUSH1 0x1 PUSH1 0x1 PUSH1 0xA0 SHL SUB AND EQ PUSH2 0x18D JUMPI PUSH1 0x40 MLOAD PUSH3 0x461BCD PUSH1 0xE5 SHL DUP2 MSTORE PUSH1 0x20 PUSH1 0x4 DUP3 ADD DUP2 SWAP1 MSTORE PUSH1 0x24 DUP3 ADD MSTORE PUSH32 0x4F776E61626C653A2063616C6C6572206973206E6F7420746865206F776E6572 PUSH1 0x44 DUP3 ADD MSTORE PUSH1 0x64 ADD PUSH2 0x243 JUMP JUMPDEST PUSH1 0x33 DUP1 SLOAD PUSH1 0x1 PUSH1 0x1 PUSH1 0xA0 SHL SUB DUP4 DUP2 AND PUSH1 0x1 PUSH1 0x1 PUSH1 0xA0 SHL SUB NOT DUP4 AND DUP2 OR SWAP1 SWAP4 SSTORE PUSH1 0x40 MLOAD SWAP2 AND SWAP2 SWAP1 DUP3 SWAP1 PUSH32 0x8BE0079C531659141344CD1FD0A4F28419497F9722A3DAAFE3B4186F6B6457E0 SWAP1 PUSH1 0x0 SWAP1 LOG3 POP POP JUMP JUMPDEST PUSH1 0x1 PUSH1 0x1 PUSH1 0xA0 SHL SUB SWAP2 SWAP1 SWAP2 AND DUP2 MSTORE PUSH1 0x20 ADD SWAP1 JUMP JUMPDEST PUSH1 0x0 PUSH1 0x20 DUP3 DUP5 SUB SLT ISZERO PUSH2 0x3E8 JUMPI PUSH1 0x0 DUP1 REVERT JUMPDEST POP CALLDATALOAD SWAP2 SWAP1 POP JUMP JUMPDEST PUSH1 0x0 PUSH1 0x20 DUP3 DUP5 SUB SLT ISZERO PUSH2 0x401 JUMPI PUSH1 0x0 DUP1 REVERT JUMPDEST DUP2 CALLDATALOAD PUSH1 0x1 PUSH1 0x1 PUSH1 0xA0 SHL SUB DUP2 AND DUP2 EQ PUSH2 0x418 JUMPI PUSH1 0x0 DUP1 REVERT JUMPDEST SWAP4 SWAP3 POP POP POP JUMP JUMPDEST PUSH1 0x0 PUSH1 0x20 DUP3 DUP5 SUB SLT ISZERO PUSH2 0x431 JUMPI PUSH1 0x0 DUP1 REVERT JUMPDEST DUP2 MLOAD DUP1 ISZERO ISZERO DUP2 EQ PUSH2 0x418 JUMPI PUSH1 0x0 DUP1 REVERT INVALID LOG2 PUSH5 0x6970667358 0x22 SLT KECCAK256 0xE3 OR PUSH14 0xE6A4E22960D2FF55E1D65238CD4B BLOCKHASH 0xE 0xF6 PUSH19 0xA584F51872D8288954809964736F6C63430008 GT STOP CALLER "},"methodIdentifiers":{"changeL2ExecutionRelayer(uint256)":"5394b400","getGuard()":"c9106389","guard()":"7ceab3b1","l2ExecutionRelayer()":"3b0def76","owner()":"8da5cb5b","renounceOwnership()":"715018a6","setGuard(address)":"e19a9dd9","starknetCore()":"39e730ab","transferOwnership(address)":"f2fde38b"}}}}}