{
  "_format": "hh-sol-artifact-1",
  "contractName": "ModuleProxyFactory",
  "sourceName": "@gnosis.pm/zodiac/contracts/factory/ModuleProxyFactory.sol",
  "abi": [
    {
      "inputs": [],
      "name": "FailedInitialization",
      "type": "error"
    },
    {
      "inputs": [
        {
          "internalType": "address",
          "name": "address_",
          "type": "address"
        }
      ],
      "name": "TakenAddress",
      "type": "error"
    },
    {
      "inputs": [
        {
          "internalType": "address",
          "name": "target",
          "type": "address"
        }
      ],
      "name": "ZeroAddress",
      "type": "error"
    },
    {
      "anonymous": false,
      "inputs": [
        {
          "indexed": true,
          "internalType": "address",
          "name": "proxy",
          "type": "address"
        },
        {
          "indexed": true,
          "internalType": "address",
          "name": "masterCopy",
          "type": "address"
        }
      ],
      "name": "ModuleProxyCreation",
      "type": "event"
    },
    {
      "inputs": [
        {
          "internalType": "address",
          "name": "masterCopy",
          "type": "address"
        },
        {
          "internalType": "bytes",
          "name": "initializer",
          "type": "bytes"
        },
        {
          "internalType": "uint256",
          "name": "saltNonce",
          "type": "uint256"
        }
      ],
      "name": "deployModule",
      "outputs": [
        {
          "internalType": "address",
          "name": "proxy",
          "type": "address"
        }
      ],
      "stateMutability": "nonpayable",
      "type": "function"
    }
  ],
  "bytecode": "0x608060405234801561001057600080fd5b506103aa806100206000396000f3fe608060405234801561001057600080fd5b506004361061002b5760003560e01c8063f1ab873c14610030575b600080fd5b61004361003e36600461024d565b610059565b6040516100509190610325565b60405180910390f35b600061009d84848051906020012084604051602001610082929190918252602082015260400190565b60405160208183030381529060405280519060200120610165565b90506000816001600160a01b0316846040516100b99190610339565b6000604051808303816000865af19150503d80600081146100f6576040519150601f19603f3d011682016040523d82523d6000602084013e6100fb565b606091505b505090508061011d57604051637dabd39960e01b815260040160405180910390fd5b846001600160a01b0316826001600160a01b03167f2150ada912bf189ed721c44211199e270903fc88008c2a1e1e889ef30fe67c5f60405160405180910390a3509392505050565b60006001600160a01b0383166101995782604051633202e20d60e21b81526004016101909190610325565b60405180910390fd5b60405172602d8060093d393df3363d3d373d3d3d363d7360681b60208201526001600160601b0319606085901b1660338201526e5af43d82803e903d91602b57fd5bf360881b60478201526000906056016040516020818303038152906040529050828151602083016000f591506001600160a01b038216610230578160405163371e9e8960e21b81526004016101909190610325565b5092915050565b634e487b7160e01b600052604160045260246000fd5b60008060006060848603121561026257600080fd5b83356001600160a01b038116811461027957600080fd5b925060208401356001600160401b038082111561029557600080fd5b818601915086601f8301126102a957600080fd5b8135818111156102bb576102bb610237565b604051601f8201601f19908116603f011681019083821181831017156102e3576102e3610237565b816040528281528960208487010111156102fc57600080fd5b826020860160208301376000602084830101528096505050505050604084013590509250925092565b6001600160a01b0391909116815260200190565b6000825160005b8181101561035a5760208186018101518583015201610340565b81811115610369576000828501525b50919091019291505056fea2646970667358221220b038c3860c53e89a8467177a26199cb3d621cb53c2fbf928e95f32ab3b3c699a64736f6c63430008090033",
  "linkReferences": {},
  "deployedLinkReferences": {}
}