{
  "_format": "hh-sol-artifact-1",
  "contractName": "StarknetMessaging",
  "sourceName": "contracts/ethereum/TestContracts/StarknetMessaging.sol",
  "abi": [
    {
      "anonymous": false,
      "inputs": [
        {
          "indexed": true,
          "internalType": "uint256",
          "name": "from_address",
          "type": "uint256"
        },
        {
          "indexed": true,
          "internalType": "address",
          "name": "to_address",
          "type": "address"
        },
        {
          "indexed": false,
          "internalType": "uint256[]",
          "name": "payload",
          "type": "uint256[]"
        }
      ],
      "name": "ConsumedMessageToL1",
      "type": "event"
    },
    {
      "anonymous": false,
      "inputs": [
        {
          "indexed": true,
          "internalType": "address",
          "name": "from_address",
          "type": "address"
        },
        {
          "indexed": true,
          "internalType": "uint256",
          "name": "to_address",
          "type": "uint256"
        },
        {
          "indexed": true,
          "internalType": "uint256",
          "name": "selector",
          "type": "uint256"
        },
        {
          "indexed": false,
          "internalType": "uint256[]",
          "name": "payload",
          "type": "uint256[]"
        },
        {
          "indexed": false,
          "internalType": "uint256",
          "name": "nonce",
          "type": "uint256"
        }
      ],
      "name": "ConsumedMessageToL2",
      "type": "event"
    },
    {
      "anonymous": false,
      "inputs": [
        {
          "indexed": true,
          "internalType": "uint256",
          "name": "from_address",
          "type": "uint256"
        },
        {
          "indexed": true,
          "internalType": "address",
          "name": "to_address",
          "type": "address"
        },
        {
          "indexed": false,
          "internalType": "uint256[]",
          "name": "payload",
          "type": "uint256[]"
        }
      ],
      "name": "LogMessageToL1",
      "type": "event"
    },
    {
      "anonymous": false,
      "inputs": [
        {
          "indexed": true,
          "internalType": "address",
          "name": "from_address",
          "type": "address"
        },
        {
          "indexed": true,
          "internalType": "uint256",
          "name": "to_address",
          "type": "uint256"
        },
        {
          "indexed": true,
          "internalType": "uint256",
          "name": "selector",
          "type": "uint256"
        },
        {
          "indexed": false,
          "internalType": "uint256[]",
          "name": "payload",
          "type": "uint256[]"
        },
        {
          "indexed": false,
          "internalType": "uint256",
          "name": "nonce",
          "type": "uint256"
        }
      ],
      "name": "LogMessageToL2",
      "type": "event"
    },
    {
      "inputs": [
        {
          "internalType": "uint256",
          "name": "from_address",
          "type": "uint256"
        },
        {
          "internalType": "uint256[]",
          "name": "payload",
          "type": "uint256[]"
        }
      ],
      "name": "consumeMessageFromL2",
      "outputs": [
        {
          "internalType": "bytes32",
          "name": "",
          "type": "bytes32"
        }
      ],
      "stateMutability": "nonpayable",
      "type": "function"
    },
    {
      "inputs": [],
      "name": "l1ToL2MessageNonce",
      "outputs": [
        {
          "internalType": "uint256",
          "name": "",
          "type": "uint256"
        }
      ],
      "stateMutability": "view",
      "type": "function"
    },
    {
      "inputs": [
        {
          "internalType": "bytes32",
          "name": "msgHash",
          "type": "bytes32"
        }
      ],
      "name": "l1ToL2Messages",
      "outputs": [
        {
          "internalType": "uint256",
          "name": "",
          "type": "uint256"
        }
      ],
      "stateMutability": "view",
      "type": "function"
    },
    {
      "inputs": [
        {
          "internalType": "bytes32",
          "name": "msgHash",
          "type": "bytes32"
        }
      ],
      "name": "l2ToL1Messages",
      "outputs": [
        {
          "internalType": "uint256",
          "name": "",
          "type": "uint256"
        }
      ],
      "stateMutability": "view",
      "type": "function"
    },
    {
      "inputs": [
        {
          "internalType": "uint256",
          "name": "to_address",
          "type": "uint256"
        },
        {
          "internalType": "uint256",
          "name": "selector",
          "type": "uint256"
        },
        {
          "internalType": "uint256[]",
          "name": "payload",
          "type": "uint256[]"
        }
      ],
      "name": "sendMessageToL2",
      "outputs": [
        {
          "internalType": "bytes32",
          "name": "",
          "type": "bytes32"
        }
      ],
      "stateMutability": "nonpayable",
      "type": "function"
    }
  ],
  "bytecode": "0x608060405234801561001057600080fd5b5061071d806100206000396000f3fe608060405234801561001057600080fd5b50600436106100575760003560e01c8063018cccdf1461005c5780632c9dd5c0146100765780633e3aa6c51461008957806377c7d7a91461009c578063a46efaf3146100af575b600080fd5b6100646100c2565b60405190815260200160405180910390f35b61006461008436600461045a565b6100f5565b6100646100973660046104a5565b61020f565b6100646100aa3660046104f7565b61030e565b6100646100bd3660046104f7565b610329565b60006100f060405180604001604052806020815260200160008051602061067f833981519152815250610333565b905090565b60405160009081906101139086903390869088908290602001610539565b6040516020818303038152906040528051906020012090506000610135610367565b60008381526020919091526040902054116101935760405162461bcd60e51b815260206004820152601a602482015279494e56414c49445f4d4553534147455f544f5f434f4e53554d4560301b604482015260640160405180910390fd5b336001600160a01b0316857f7a06c571aa77f34d9706c51e5d8122b5595aebeaa34233bfe866f22befb973b186866040516101cf929190610595565b60405180910390a360016101e1610367565b6000838152602001908152602001600020600082825461020191906105c7565b909155509095945050505050565b60008061021a6100c2565b905061025560405180604001604052806020815260200160008051602061067f83398151915281525082600161025091906105e0565b61038a565b8486336001600160a01b03167f7d3450d4f5138e54dcb21a322312d50846ead7856426fb38778f8ef33aeccc01878786604051610294939291906105f3565b60405180910390a46040516000906102bc903390899085908a9089908b908290602001610617565b60405160208183030381529060405280519060200120905060016102de6103bd565b600083815260200190815260200160002060008282546102fe91906105e0565b9091555090979650505050505050565b60006103186103bd565b600092835260205250604090205490565b6000610318610367565b60008082604051602001610347919061064f565b60408051601f198184030181529190528051602090910120549392505050565b60006100f060405180606001604052806023815260200161069f602391396103dc565b60008260405160200161039d919061064f565b604051602081830303815290604052805190602001209050818155505050565b60006100f06040518060600160405280602681526020016106c2602691395b600080826040516020016103f0919061064f565b60408051601f1981840301815291905280516020909101209392505050565b60008083601f84011261042157600080fd5b5081356001600160401b0381111561043857600080fd5b6020830191508360208260051b850101111561045357600080fd5b9250929050565b60008060006040848603121561046f57600080fd5b8335925060208401356001600160401b0381111561048c57600080fd5b6104988682870161040f565b9497909650939450505050565b600080600080606085870312156104bb57600080fd5b843593506020850135925060408501356001600160401b038111156104df57600080fd5b6104eb8782880161040f565b95989497509550505050565b60006020828403121561050957600080fd5b5035919050565b60006001600160fb1b0383111561052657600080fd5b8260051b80838637939093019392505050565b8581528460208201528360408201526000610558606083018486610510565b979650505050505050565b81835260006001600160fb1b0383111561057c57600080fd5b8260051b80836020870137939093016020019392505050565b6020815260006105a9602083018486610563565b949350505050565b634e487b7160e01b600052601160045260246000fd5b818103818111156105da576105da6105b1565b92915050565b808201808211156105da576105da6105b1565b604081526000610607604083018587610563565b9050826020830152949350505050565b878152866020820152856040820152846060820152836080820152600061064260a083018486610510565b9998505050505050505050565b6000825160005b818110156106705760208186018101518583015201610656565b50600092019182525091905056fe535441524b4e45545f312e305f4d5347494e475f4c31544f4c325f4e4f4e4345535441524b4e45545f312e305f4d5347494e475f4c32544f4c315f4d41505050494e47535441524b4e45545f312e305f4d5347494e475f4c31544f4c325f4d41505050494e475f5632a2646970667358221220435ece2d3cd78c35528a3bf17c650094efc929563088854bfd0948cb8d6ddf3164736f6c63430008110033",
  "linkReferences": {},
  "deployedLinkReferences": {}
}