{
  "_format": "hh-sol-artifact-1",
  "contractName": "MockStarknetMessaging",
  "sourceName": "contracts/ethereum/TestContracts/MockStarknetMessaging.sol",
  "abi": [
    {
      "anonymous": false,
      "inputs": [
        {
          "indexed": true,
          "internalType": "uint256",
          "name": "from_address",
          "type": "uint256"
        },
        {
          "indexed": true,
          "internalType": "address",
          "name": "to_address",
          "type": "address"
        },
        {
          "indexed": false,
          "internalType": "uint256[]",
          "name": "payload",
          "type": "uint256[]"
        }
      ],
      "name": "ConsumedMessageToL1",
      "type": "event"
    },
    {
      "anonymous": false,
      "inputs": [
        {
          "indexed": true,
          "internalType": "address",
          "name": "from_address",
          "type": "address"
        },
        {
          "indexed": true,
          "internalType": "uint256",
          "name": "to_address",
          "type": "uint256"
        },
        {
          "indexed": true,
          "internalType": "uint256",
          "name": "selector",
          "type": "uint256"
        },
        {
          "indexed": false,
          "internalType": "uint256[]",
          "name": "payload",
          "type": "uint256[]"
        },
        {
          "indexed": false,
          "internalType": "uint256",
          "name": "nonce",
          "type": "uint256"
        }
      ],
      "name": "ConsumedMessageToL2",
      "type": "event"
    },
    {
      "anonymous": false,
      "inputs": [
        {
          "indexed": true,
          "internalType": "uint256",
          "name": "from_address",
          "type": "uint256"
        },
        {
          "indexed": true,
          "internalType": "address",
          "name": "to_address",
          "type": "address"
        },
        {
          "indexed": false,
          "internalType": "uint256[]",
          "name": "payload",
          "type": "uint256[]"
        }
      ],
      "name": "LogMessageToL1",
      "type": "event"
    },
    {
      "anonymous": false,
      "inputs": [
        {
          "indexed": true,
          "internalType": "address",
          "name": "from_address",
          "type": "address"
        },
        {
          "indexed": true,
          "internalType": "uint256",
          "name": "to_address",
          "type": "uint256"
        },
        {
          "indexed": true,
          "internalType": "uint256",
          "name": "selector",
          "type": "uint256"
        },
        {
          "indexed": false,
          "internalType": "uint256[]",
          "name": "payload",
          "type": "uint256[]"
        },
        {
          "indexed": false,
          "internalType": "uint256",
          "name": "nonce",
          "type": "uint256"
        }
      ],
      "name": "LogMessageToL2",
      "type": "event"
    },
    {
      "inputs": [
        {
          "internalType": "uint256",
          "name": "from_address",
          "type": "uint256"
        },
        {
          "internalType": "uint256[]",
          "name": "payload",
          "type": "uint256[]"
        }
      ],
      "name": "consumeMessageFromL2",
      "outputs": [
        {
          "internalType": "bytes32",
          "name": "",
          "type": "bytes32"
        }
      ],
      "stateMutability": "nonpayable",
      "type": "function"
    },
    {
      "inputs": [],
      "name": "l1ToL2MessageNonce",
      "outputs": [
        {
          "internalType": "uint256",
          "name": "",
          "type": "uint256"
        }
      ],
      "stateMutability": "view",
      "type": "function"
    },
    {
      "inputs": [
        {
          "internalType": "bytes32",
          "name": "msgHash",
          "type": "bytes32"
        }
      ],
      "name": "l1ToL2Messages",
      "outputs": [
        {
          "internalType": "uint256",
          "name": "",
          "type": "uint256"
        }
      ],
      "stateMutability": "view",
      "type": "function"
    },
    {
      "inputs": [
        {
          "internalType": "bytes32",
          "name": "msgHash",
          "type": "bytes32"
        }
      ],
      "name": "l2ToL1Messages",
      "outputs": [
        {
          "internalType": "uint256",
          "name": "",
          "type": "uint256"
        }
      ],
      "stateMutability": "view",
      "type": "function"
    },
    {
      "inputs": [
        {
          "internalType": "uint256",
          "name": "from_address",
          "type": "uint256"
        },
        {
          "internalType": "uint256",
          "name": "to_address",
          "type": "uint256"
        },
        {
          "internalType": "uint256",
          "name": "selector",
          "type": "uint256"
        },
        {
          "internalType": "uint256[]",
          "name": "payload",
          "type": "uint256[]"
        },
        {
          "internalType": "uint256",
          "name": "nonce",
          "type": "uint256"
        }
      ],
      "name": "mockConsumeMessageToL2",
      "outputs": [],
      "stateMutability": "nonpayable",
      "type": "function"
    },
    {
      "inputs": [
        {
          "internalType": "uint256",
          "name": "from_address",
          "type": "uint256"
        },
        {
          "internalType": "uint256",
          "name": "to_address",
          "type": "uint256"
        },
        {
          "internalType": "uint256[]",
          "name": "payload",
          "type": "uint256[]"
        }
      ],
      "name": "mockSendMessageFromL2",
      "outputs": [],
      "stateMutability": "nonpayable",
      "type": "function"
    },
    {
      "inputs": [
        {
          "internalType": "uint256",
          "name": "to_address",
          "type": "uint256"
        },
        {
          "internalType": "uint256",
          "name": "selector",
          "type": "uint256"
        },
        {
          "internalType": "uint256[]",
          "name": "payload",
          "type": "uint256[]"
        }
      ],
      "name": "sendMessageToL2",
      "outputs": [
        {
          "internalType": "bytes32",
          "name": "",
          "type": "bytes32"
        }
      ],
      "stateMutability": "nonpayable",
      "type": "function"
    }
  ],
  "bytecode": "0x608060405234801561001057600080fd5b506108e4806100206000396000f3fe608060405234801561001057600080fd5b506004361061006d5760003560e01c8063018cccdf14610072578063067aba991461008c5780632c9dd5c0146100a15780633e3aa6c5146100b457806377c7d7a9146100c7578063a46efaf3146100da578063d1fb1509146100ed575b600080fd5b61007a610100565b60405190815260200160405180910390f35b61009f61009a366004610585565b610133565b005b61007a6100af3660046105ed565b6101e3565b61007a6100c2366004610638565b6102cc565b61007a6100d536600461068a565b6103cb565b61007a6100e836600461068a565b6103e6565b61009f6100fb366004610638565b6103f0565b600061012e60405180604001604052806020815260200160008051602061084683398151915281525061045a565b905090565b60405160009061015390889088908590899088908a9082906020016106cc565b604051602081830303815290604052805190602001209050600061017561048e565b60008381526020919091526040902054116101ab5760405162461bcd60e51b81526004016101a290610704565b60405180910390fd5b60016101b561048e565b600083815260200190815260200160002060008282546101d5919061074e565b909155505050505050505050565b60405160009081906102019086903390869088908290602001610767565b60405160208183030381529060405280519060200120905060006102236104b1565b60008381526020919091526040902054116102505760405162461bcd60e51b81526004016101a290610704565b336001600160a01b0316857f7a06c571aa77f34d9706c51e5d8122b5595aebeaa34233bfe866f22befb973b1868660405161028c9291906107c3565b60405180910390a3600161029e6104b1565b600083815260200190815260200160002060008282546102be919061074e565b909155509095945050505050565b6000806102d7610100565b905061031260405180604001604052806020815260200160008051602061084683398151915281525082600161030d91906107df565b6104d4565b8486336001600160a01b03167f7d3450d4f5138e54dcb21a322312d50846ead7856426fb38778f8ef33aeccc01878786604051610351939291906107f2565b60405180910390a4604051600090610379903390899085908a9089908b9082906020016106cc565b604051602081830303815290604052805190602001209050600161039b61048e565b600083815260200190815260200160002060008282546103bb91906107df565b9091555090979650505050505050565b60006103d561048e565b600092835260205250604090205490565b60006103d56104b1565b60405160009061040c9086908690859087908290602001610767565b604051602081830303815290604052805190602001209050600161042e6104b1565b6000838152602001908152602001600020600082825461044e91906107df565b90915550505050505050565b6000808260405160200161046e9190610816565b60408051601f198184030181529190528051602090910120549392505050565b600061012e60405180606001604052806026815260200161088960269139610507565b600061012e60405180606001604052806023815260200161086660239139610507565b6000826040516020016104e79190610816565b604051602081830303815290604052805190602001209050818155505050565b6000808260405160200161051b9190610816565b60408051601f1981840301815291905280516020909101209392505050565b60008083601f84011261054c57600080fd5b5081356001600160401b0381111561056357600080fd5b6020830191508360208260051b850101111561057e57600080fd5b9250929050565b60008060008060008060a0878903121561059e57600080fd5b86359550602087013594506040870135935060608701356001600160401b038111156105c957600080fd5b6105d589828a0161053a565b979a9699509497949695608090950135949350505050565b60008060006040848603121561060257600080fd5b8335925060208401356001600160401b0381111561061f57600080fd5b61062b8682870161053a565b9497909650939450505050565b6000806000806060858703121561064e57600080fd5b843593506020850135925060408501356001600160401b0381111561067257600080fd5b61067e8782880161053a565b95989497509550505050565b60006020828403121561069c57600080fd5b5035919050565b60006001600160fb1b038311156106b957600080fd5b8260051b80838637939093019392505050565b87815286602082015285604082015284606082015283608082015260006106f760a0830184866106a3565b9998505050505050505050565b6020808252601a9082015279494e56414c49445f4d4553534147455f544f5f434f4e53554d4560301b604082015260600190565b634e487b7160e01b600052601160045260246000fd5b8181038181111561076157610761610738565b92915050565b85815284602082015283604082015260006107866060830184866106a3565b979650505050505050565b81835260006001600160fb1b038311156107aa57600080fd5b8260051b80836020870137939093016020019392505050565b6020815260006107d7602083018486610791565b949350505050565b8082018082111561076157610761610738565b604081526000610806604083018587610791565b9050826020830152949350505050565b6000825160005b81811015610837576020818601810151858301520161081d565b50600092019182525091905056fe535441524b4e45545f312e305f4d5347494e475f4c31544f4c325f4e4f4e4345535441524b4e45545f312e305f4d5347494e475f4c32544f4c315f4d41505050494e47535441524b4e45545f312e305f4d5347494e475f4c31544f4c325f4d41505050494e475f5632a26469706673582212209ffea03eda685face99ff22d5645b6f416324158ac5d04799bd21a48f66e201664736f6c63430008110033",
  "linkReferences": {},
  "deployedLinkReferences": {}
}