{
  "_format": "hh-sol-artifact-1",
  "contractName": "GuardManager",
  "sourceName": "@gnosis.pm/safe-contracts/contracts/base/GuardManager.sol",
  "abi": [
    {
      "anonymous": false,
      "inputs": [
        {
          "indexed": false,
          "internalType": "address",
          "name": "guard",
          "type": "address"
        }
      ],
      "name": "ChangedGuard",
      "type": "event"
    },
    {
      "inputs": [
        {
          "internalType": "address",
          "name": "guard",
          "type": "address"
        }
      ],
      "name": "setGuard",
      "outputs": [],
      "stateMutability": "nonpayable",
      "type": "function"
    }
  ],
  "bytecode": "0x608060405234801561001057600080fd5b50610154806100206000396000f3fe608060405234801561001057600080fd5b506004361061002b5760003560e01c8063e19a9dd914610030575b600080fd5b61004361003e3660046100ee565b610045565b005b61004d6100b1565b7f4a204f620c8c5ccdca3fd54d003badd85ba500436a431f0cbda4f558c93c34c88181556040516001600160a01b03831681527f1151116914515bc0891ff9047a6cb32cf902546f83066499bcf8ba33d2353fa29060200160405180910390a15050565b3330146100ec5760405162461bcd60e51b8152602060048201526005602482015264475330333160d81b604482015260640160405180910390fd5b565b60006020828403121561010057600080fd5b81356001600160a01b038116811461011757600080fd5b939250505056fea2646970667358221220c3eb55d157f9cedfdf29f912f60e888423f112e52eff5bcc920549d53e876c5964736f6c63430008090033",
  "linkReferences": {},
  "deployedLinkReferences": {}
}