{
  "_format": "hh-sol-artifact-1",
  "contractName": "FallbackManager",
  "sourceName": "@gnosis.pm/safe-contracts/contracts/base/FallbackManager.sol",
  "abi": [
    {
      "anonymous": false,
      "inputs": [
        {
          "indexed": false,
          "internalType": "address",
          "name": "handler",
          "type": "address"
        }
      ],
      "name": "ChangedFallbackHandler",
      "type": "event"
    },
    {
      "stateMutability": "nonpayable",
      "type": "fallback"
    },
    {
      "inputs": [
        {
          "internalType": "address",
          "name": "handler",
          "type": "address"
        }
      ],
      "name": "setFallbackHandler",
      "outputs": [],
      "stateMutability": "nonpayable",
      "type": "function"
    }
  ],
  "bytecode": "0x608060405234801561001057600080fd5b506101a7806100206000396000f3fe608060405234801561001057600080fd5b506004361061002b5760003560e01c8063f08a032314610072575b60008051602061015283398151915280548061004357005b36600080373360601b365260008060143601600080855af190503d6000803e8061006c573d6000fd5b503d6000f35b610085610080366004610121565b610087565b005b61008f6100e4565b6100a58160008051602061015283398151915255565b6040516001600160a01b03821681527f5ac6c46c93c8d0e53714ba3b53db3e7c046da994313d7ed0d192028bc7c228b09060200160405180910390a150565b33301461011f5760405162461bcd60e51b8152602060048201526005602482015264475330333160d81b604482015260640160405180910390fd5b565b60006020828403121561013357600080fd5b81356001600160a01b038116811461014a57600080fd5b939250505056fe6c9a6c4a39284e37ed1cf53d337577d14212a4870fb976a4366c693b939918d5a2646970667358221220706b566f60dccb8fa5701bd4278f8336a9172732d5424880f5d0384ca8594fa864736f6c63430008090033",
  "linkReferences": {},
  "deployedLinkReferences": {}
}