{
  "_format": "hh-sol-artifact-1",
  "contractName": "GnosisSafeProxyFactory",
  "sourceName": "@gnosis.pm/safe-contracts/contracts/proxies/GnosisSafeProxyFactory.sol",
  "abi": [
    {
      "anonymous": false,
      "inputs": [
        {
          "indexed": false,
          "internalType": "contract GnosisSafeProxy",
          "name": "proxy",
          "type": "address"
        },
        {
          "indexed": false,
          "internalType": "address",
          "name": "singleton",
          "type": "address"
        }
      ],
      "name": "ProxyCreation",
      "type": "event"
    },
    {
      "inputs": [
        {
          "internalType": "address",
          "name": "_singleton",
          "type": "address"
        },
        {
          "internalType": "bytes",
          "name": "initializer",
          "type": "bytes"
        },
        {
          "internalType": "uint256",
          "name": "saltNonce",
          "type": "uint256"
        }
      ],
      "name": "calculateCreateProxyWithNonceAddress",
      "outputs": [
        {
          "internalType": "contract GnosisSafeProxy",
          "name": "proxy",
          "type": "address"
        }
      ],
      "stateMutability": "nonpayable",
      "type": "function"
    },
    {
      "inputs": [
        {
          "internalType": "address",
          "name": "singleton",
          "type": "address"
        },
        {
          "internalType": "bytes",
          "name": "data",
          "type": "bytes"
        }
      ],
      "name": "createProxy",
      "outputs": [
        {
          "internalType": "contract GnosisSafeProxy",
          "name": "proxy",
          "type": "address"
        }
      ],
      "stateMutability": "nonpayable",
      "type": "function"
    },
    {
      "inputs": [
        {
          "internalType": "address",
          "name": "_singleton",
          "type": "address"
        },
        {
          "internalType": "bytes",
          "name": "initializer",
          "type": "bytes"
        },
        {
          "internalType": "uint256",
          "name": "saltNonce",
          "type": "uint256"
        },
        {
          "internalType": "contract IProxyCreationCallback",
          "name": "callback",
          "type": "address"
        }
      ],
      "name": "createProxyWithCallback",
      "outputs": [
        {
          "internalType": "contract GnosisSafeProxy",
          "name": "proxy",
          "type": "address"
        }
      ],
      "stateMutability": "nonpayable",
      "type": "function"
    },
    {
      "inputs": [
        {
          "internalType": "address",
          "name": "_singleton",
          "type": "address"
        },
        {
          "internalType": "bytes",
          "name": "initializer",
          "type": "bytes"
        },
        {
          "internalType": "uint256",
          "name": "saltNonce",
          "type": "uint256"
        }
      ],
      "name": "createProxyWithNonce",
      "outputs": [
        {
          "internalType": "contract GnosisSafeProxy",
          "name": "proxy",
          "type": "address"
        }
      ],
      "stateMutability": "nonpayable",
      "type": "function"
    },
    {
      "inputs": [],
      "name": "proxyCreationCode",
      "outputs": [
        {
          "internalType": "bytes",
          "name": "",
          "type": "bytes"
        }
      ],
      "stateMutability": "pure",
      "type": "function"
    },
    {
      "inputs": [],
      "name": "proxyRuntimeCode",
      "outputs": [
        {
          "internalType": "bytes",
          "name": "",
          "type": "bytes"
        }
      ],
      "stateMutability": "pure",
      "type": "function"
    }
  ],
  "bytecode": "0x608060405234801561001057600080fd5b50610a11806100206000396000f3fe608060405234801561001057600080fd5b50600436106100625760003560e01c80631688f0b9146100675780632500510e1461009057806353e5d935146100a357806361b69abd146100b8578063addacc0f146100cb578063d18af54d146100d3575b600080fd5b61007a61007536600461052d565b6100e6565b6040516100879190610585565b60405180910390f35b61007a61009e366004610599565b610146565b6100ab6101d6565b604051610087919061067f565b61007a6100c6366004610699565b610200565b6100ab610288565b61007a6100e13660046106e8565b61029a565b60006100f384848461036b565b8351909150156101185760008060008551602087016000865af1141561011857600080fd5b6000805160206109bc8339815191528185604051610137929190610753565b60405180910390a19392505050565b600061018a8585858080601f01602080910402602001604051908101604052809392919081815260200183838082843760009201919091525087925061036b915050565b6040516001600160601b0319606083901b16602082015290915060340160408051601f198184030181529082905262461bcd60e51b82526101cd9160040161067f565b60405180910390fd5b6060604051806020016101e89061045a565b601f1982820381018352601f90910116604052919050565b60008260405161020f9061045a565b6102199190610585565b604051809103906000f080158015610235573d6000803e3d6000fd5b5082519091501561025b5760008060008451602086016000865af1141561025b57600080fd5b6000805160206109bc833981519152818460405161027a929190610753565b60405180910390a192915050565b6060604051806020016101e890610467565b60008083836040516020016102c692919091825260601b6001600160601b031916602082015260340190565b6040516020818303038152906040528051906020012060001c90506102ec8686836100e6565b91506001600160a01b03831615610362576040516303ca56a360e31b81526001600160a01b03841690631e52b5189061032f9085908a908a908a9060040161076d565b600060405180830381600087803b15801561034957600080fd5b505af115801561035d573d6000803e3d6000fd5b505050505b50949350505050565b600080838051906020012083604051602001610391929190918252602082015260400190565b6040516020818303038152906040528051906020012090506000604051806020016103bb9061045a565b601f1982820381018352601f9091011660408190526103e891906001600160a01b038916906020016107aa565b6040516020818303038152906040529050818151826020016000f592506001600160a01b0383166104515760405162461bcd60e51b815260206004820152601360248201527210dc99585d194c8818d85b1b0819985a5b1959606a1b60448201526064016101cd565b50509392505050565b610173806107cd83390190565b607c8061094083390190565b6001600160a01b038116811461048857600080fd5b50565b634e487b7160e01b600052604160045260246000fd5b600082601f8301126104b257600080fd5b81356001600160401b03808211156104cc576104cc61048b565b604051601f8301601f19908116603f011681019082821181831017156104f4576104f461048b565b8160405283815286602085880101111561050d57600080fd5b836020870160208301376000602085830101528094505050505092915050565b60008060006060848603121561054257600080fd5b833561054d81610473565b925060208401356001600160401b0381111561056857600080fd5b610574868287016104a1565b925050604084013590509250925092565b6001600160a01b0391909116815260200190565b600080600080606085870312156105af57600080fd5b84356105ba81610473565b935060208501356001600160401b03808211156105d657600080fd5b818701915087601f8301126105ea57600080fd5b8135818111156105f957600080fd5b88602082850101111561060b57600080fd5b95986020929092019750949560400135945092505050565b60005b8381101561063e578181015183820152602001610626565b8381111561064d576000848401525b50505050565b6000815180845261066b816020860160208601610623565b601f01601f19169290920160200192915050565b6020815260006106926020830184610653565b9392505050565b600080604083850312156106ac57600080fd5b82356106b781610473565b915060208301356001600160401b038111156106d257600080fd5b6106de858286016104a1565b9150509250929050565b600080600080608085870312156106fe57600080fd5b843561070981610473565b935060208501356001600160401b0381111561072457600080fd5b610730878288016104a1565b93505060408501359150606085013561074881610473565b939692955090935050565b6001600160a01b0392831681529116602082015260400190565b6001600160a01b0385811682528416602082015260806040820181905260009061079990830185610653565b905082606083015295945050505050565b600083516107bc818460208801610623565b919091019182525060200191905056fe608060405234801561001057600080fd5b5060405161017338038061017383398101604081905261002f916100b9565b6001600160a01b0381166100945760405162461bcd60e51b815260206004820152602260248201527f496e76616c69642073696e676c65746f6e20616464726573732070726f766964604482015261195960f21b606482015260840160405180910390fd5b600080546001600160a01b0319166001600160a01b03929092169190911790556100e9565b6000602082840312156100cb57600080fd5b81516001600160a01b03811681146100e257600080fd5b9392505050565b607c806100f76000396000f3fe6080604052600080546001600160a01b0316813563530ca43760e11b1415602857808252602082f35b3682833781823684845af490503d82833e806041573d82fd5b503d81f3fea26469706673582212203e5708692aee5bb2d944ae7b56b765d3aa9c670b8b7fc79853bebbe25587d63a64736f6c634300080900336080604052600080546001600160a01b0316813563530ca43760e11b1415602857808252602082f35b3682833781823684845af490503d82833e806041573d82fd5b503d81f3fea26469706673582212203e5708692aee5bb2d944ae7b56b765d3aa9c670b8b7fc79853bebbe25587d63a64736f6c634300080900334f51faf6c4561ff95f067657e43439f0f856d97c04d9ec9070a6199ad418e235a2646970667358221220516c4951e4c13fb0c980016bb01b3d8bbda62b3d696b1b424833b18d45989ff064736f6c63430008090033",
  "linkReferences": {},
  "deployedLinkReferences": {}
}